:020000040800F2
:1000000070090020B93F0008BD3D00080F3E000800
:10001000113E0008133E0008153E000800000000D5
:10002000000000000000000000000000173E000873
:10003000193E0008000000001B3E00081D3E00089D
:10004000D93F0008DD3F0008E13F0008E53F000818
:10005000E93F0008ED3F0008C73D0008E73D000804
:10006000F13F0008F53F0008F93F0008FD3F000898
:100070000140000805400008094000080D40000844
:100080001140000815400008194000081D400008F4
:10009000BF3D000821400008254000082940000815
:1000A0002D40000831400008354000083940000864
:1000B0000D3E00083D400008414000084540000852
:1000C000494000084D4000085140000855400008D4
:1000D000594000085D400008614000086540000884
:1000E000694000086D4000087140000810B582B0FA
:1000F00001211C2001F096FE0220ADF80000102026
:100100008DF8030003208DF8020000A9494801F092
:10011000D5FEC820ADF8000010208DF803000320A4
:100120008DF8020000A9444801F0C8FE4FF4C04019
:10013000ADF8000010208DF8030003208DF80200B8
:1001400000A93E4801F0BAFE01F060FF02213948E3
:1001500001F026FF022002F049F80221354801F0A3
:100160001CFF1E2002F042F80821334801F018FF5E
:10017000032002F03BF800240EE008212E4801F095
:100180000CFF012002F014F808212B4801F008FFB1
:10019000012002F00DF8641CE4B2202CEDDB0821F4
:1001A000254801F0FAFE282002F020F840212248DC
:1001B00001F0F3FE042002F019F880211E4801F03E
:1001C000ECFE0F2002F012F80F2002F00FF81021C1
:1001D000012001F0B7FC1221002001F0B3FC0F2038
:1001E00002F004F84FF48041144801F0D6FE4FF4B9
:1001F0000051124801F0D1FE012001F0F7FF4FF449
:1002000080410E4801F0CCFE4FF400510B4801F044
:10021000C7FE012001F0EAFF4FF48041074801F0DA
:10022000BCFE4FF40051054801F0B7FE00F008F89D
:1002300013BD0000000C0140000801400010014007
:1002400038B5002400250223042204211E2001F0D9
:1002500097FC022343F6017202211E2001F090FC5C
:100260000223002202211E2001F08AFC0223082220
:1002700006211E2001F084FC042301224FF4847126
:100280001E2001F07DFC042301224FF486711E2004
:1002900001F076FC042301224FF428711E2001F0A6
:1002A0006FFC042349F2BD024FF42B711E2001F0B4
:1002B00067FC012001F0B9FF042303224FF42871E9
:1002C0001E2001F05DFC042314224FF48C711E20CB
:1002D00001F056FC042341F270724FF490711E201D
:1002E00001F04EFC042300224FF492711E2001F015
:1002F00047FC042340F201124FF494711E2001F0D8
:100300003FFC04235FF480324FF498711E2001F00B
:1003100037FC04234FF4A0424FF49A711E2001F0E1
:100320002FFC04235FF480324FF49C711E2001F0F7
:1003300027FC04235FF480324FF49E711E2001F0ED
:100340001FFC04235FF480324FF4A0711E2001F0E3
:1003500017FC04235FF480324FF4A2711E2001F0D9
:100360000FFC04234FF480524FF4A4711E2001F0BF
:1003700007FC04235FF480324FF4A6711E2001F0C5
:10038000FFFB04234FF4B0724FF4A8711E2001F05C
:10039000F7FB042301224FF4AA711E2001F0F0FBA9
:1003A0000423C8224FF4AC711E2001F0E9FB0423A2
:1003B0002A224FF4B4711E2001F0E2FB042340F224
:1003C00077624FF4B8711E2001F0DAFB042381221A
:1003D0004FF4BE711E2001F0D3FB042301224FF421
:1003E000C6711E2001F0CCFB04234FF482724FF43F
:1003F000C8711E2001F0C4FB042300224FF4D27107
:100400001E2001F0BDFB042315224FF4E0711E20D5
:1004100001F0B6FB042300224FF405711E2001F009
:10042000AFFB042380224FF407711E2001F0A8FBCC
:10043000042300224FF409711E2001F0A1FB0423C4
:1004400006224FF415711E2001F09AFB0423B94ACD
:100450004FF416711E2001F093FB0423B64A4FF4AB
:1004600017711E2001F08CFB0423B44A4FF418715D
:100470001E2001F085FB042344F268224FF4197119
:100480001E2001F07DFB04230F224FF41A711E2061
:1004900001F076FB0423A84A4FF41B711E2001F0E3
:1004A0006FFB042320224FF41C711E2001F068FB17
:1004B00004231F224FF41D711E2001F061FB042351
:1004C0009F4A4FF41E711E2001F05AFB04230222A2
:1004D0004FF41F711E2001F053FB042301224FF43F
:1004E0008E711E2001F04CFB042301224FF4427157
:1004F0001E2001F045FB042301224FF443711E200E
:1005000001F03EFB042301224FF494611E2001F010
:1005100037FB042349F2BD0240F2AC411E2001F03A
:100520002FFB012001F081FE042303224FF494618C
:100530001E2001F025FB042314224FF446711E20D7
:1005400001F01EFB042341F270724FF448711E202B
:1005500001F016FB042300224FF449711E2001F024
:100560000FFB042340F201124FF44A711E2001F0E8
:1005700007FB04235FF480324FF44C711E2001F01E
:10058000FFFA04234FF4A0424FF44D711E2001F0F6
:10059000F7FA04235FF480324FF44E711E2001F00D
:1005A000EFFA04235FF480324FF44F711E2001F004
:1005B000E7FA04235FF480324FF450711E2001F0FB
:1005C000DFFA04235FF480324FF451711E2001F0F2
:1005D000D7FA04234FF480524FF452711E2001F0D9
:1005E000CFFA04235FF480324FF453711E2001F0E0
:1005F000C7FA04234FF4B0724FF454711E2001F077
:10060000BFFA042301224FF455711E2001F0B8FAFD
:100610000423C8224FF456711E2001F0B1FA0423BE
:100620002A224FF45A711E2001F0AAFA042340F244
:1006300077624FF45C711E2001F0A2FA042381223C
:100640004FF45F711E2001F09BFA042301224FF446
:1006500063711E2001F094FA04234FF482724FF468
:1006600064711E2001F08CFA042300224FF469719A
:100670001E2001F085FA042315224FF470711E200C
:1006800001F07EFA0423002240F214411E2001F002
:1006900077FA0423802240F21C411E2001F070FAF8
:1006A0000423002240F224411E2001F069FA0423B1
:1006B000062240F254411E2001F062FA04231D4A32
:1006C0004FF48B611E2001F05BFA04231A4A40F2BA
:1006D0005C411E2001F054FA0423184A4FF48C6147
:1006E0001E2001F04DFA042344F2682240F26441D6
:1006F0001E2001F045FA04230F224FF48D611E20C5
:1007000001F03EFA04230C4A40F26C411E2001F035
:1007100037FA042320224FF48E611E2001F030FAB4
:1007200004231F2240F274411E2001F029FA042301
:10073000034A07E00402240008000D00060014002C
:10074000050006004FF48F611E2001F019FA042302
:10075000022240F27C411E2001F012FA0423012201
:100760004FF447711E2001F00BFA022304224FF4CC
:10077000A0611E2001F004FA042316224FF48871B0
:100780001E2001F0FDF9042316224FF444711E20AF
:1007900001F0F6F90223152240F204511E2001F067
:1007A000EFF90223902240F204511E2001F0E8F9F3
:1007B000012001F03AFD022348F2390240F20451CF
:1007C0001E2001F0DDF90223062240F204511E2012
:1007D00001F0D6F9022345F2F05240F204511E20F6
:1007E00001F0CEF9022345F2AA2240F204511E2064
:1007F00001F0C6F90223082240F204511E2001F044
:10080000BFF9012001F011FD0223152240F204512D
:100810001E2001F0B5F9022340F2C91240F2045142
:100820001E2001F0ADF9012001F0FFFC022315228A
:1008300040F204511E2001F0A3F90223902240F25D
:1008400004511E2001F09CF9012001F0EEFC02236E
:10085000152240F204511E2001F092F902234FF4B8
:10086000AC7240F204511E2001F08AF9012001F01F
:10087000DCFC0223152240F204511E2001F080F915
:1008800002234FF4DA7240F204511E2001F078F98D
:10089000012001F0CAFC022348F2390240F204515F
:1008A0001E2001F06DF90223052240F204511E20A2
:1008B00001F066F902234AF6FF2240F204511E209D
:1008C00001F05EF902234AF2555240F204511E2013
:1008D00001F056F90223802240F204511E2001F05B
:1008E0004FF9012001F0A1FC0223152240F204512E
:1008F0001E2001F045F9022340F26F1240F204512C
:100900001E2001F03DF9012001F08FFC0223152289
:1009100040F204511E2001F033F9022341F2F302A8
:1009200040F204511E2001F02BF9012001F07DFC62
:10093000022348F2390240F204511E2001F020F94E
:100940000223052240F204511E2001F019F902236E
:100950004AF6FF2240F204511E2001F011F9022351
:100960004AF2555240F204511E2001F009F90223C7
:10097000002240F204511E2001F002F9012001F092
:1009800054FC022348F2390240F204511E2001F0C7
:10099000F7F80223062240F204511E2001F0F0F87D
:1009A000022345F2F05240F204511E2001F0E8F813
:1009B000022345F2AA2240F204511E2001F0E0F881
:1009C00002234FF4E16240F204511E2001F0D8F8F6
:1009D000012001F02AFC0223152240F204511E20BE
:1009E00001F0CEF8022341F2DD0240F204511E2054
:1009F00001F0C6F8012001F018FC0223152240F294
:100A000004511E2001F0BCF8022340F2EF1240F224
:100A100004511E2001F0B4F8012001F006FC02236D
:100A2000052240F204511E2001F0AAF802232922D7
:100A300040F204511E2001F0A3F8012001F0F5FB63
:100A40000223052240F204511E2001F099F80223EE
:100A5000112240F204511E2001F092F8C82001F04A
:100A6000E4FB022300224FF4A0411E2001F088F88D
:100A7000022348F2E04245F20C011E2001F080F80A
:100A8000022300224FF4A1411E2001F079F8012336
:100A9000032248F210411E2001F072F801233F2288
:100AA00048F213411E2001F06BF80123062248F2A0
:100AB00020411E2001F064F80123312248F2F04168
:100AC0001E2001F05DF80123012248F2F4411E20AE
:100AD00001F056F802234FF4965248F240511E207E
:100AE00001F04EF80123002248F230611E2001F08F
:100AF00047F8022340F2537248F231611E2001F0A0
:100B00003FF80123022248F270611E2001F038F8FC
:100B100002234FF4965248F60C211E2001F030F8C3
:100B20000123FF2248F20B511E2001F029F8012376
:100B3000FD2248F21B511E2001F022F8022340F64C
:100B4000BF7214211E2001F01BF8022340F6BF5291
:100B500016211E2001F014F80123012248F2E05171
:100B60001E2001F00DF802234FF4807248F2E35189
:100B70001E2001F005F8012300224FF40C411E2035
:100B800000F0FEFF0123FF2248F601411E2000F085
:100B9000F7FF0123FF2248F602411E2000F0F0FF7C
:100BA0000123FF2248F603411E2000F0E9FF012344
:100BB000FF2248F604411E2000F0E2FF0123FF223D
:100BC00048F605411E2000F0DBFF0123FF2248F616
:100BD00006411E2000F0D4FF0123002248F6074101
:100BE0001E2000F0CDFF0123522248F608411E20AE
:100BF00000F0C6FF0123622248F609411E2000F0E2
:100C0000BFFF0123882248F60A411E2000F0B8FFEA
:100C10000123882248F60B411E2000F0B1FF01237A
:100C2000002248F60C411E2000F0AAFF0123882272
:100C300048F60D411E2000F0A3FF0123882248F64C
:100C40000E411E2000F09CFF0123882248F60F4130
:100C50001E2000F095FF01231C2248F610411E20A3
:100C600000F08EFF0123152248F611411E2000F0EE
:100C700087FF0123012248F612411E2000F080FF69
:100C80000123032248F613411E2000F079FF0123BF
:100C9000802248F614411E2000F072FF012300223A
:100CA00048F615411E2000F06BFF0123002248F694
:100CB00016411E2000F064FF0123782248F61741F8
:100CC0001E2000F05DFF01230A2248F618411E2075
:100CD00000F056FF01230D2248F619411E2000F0B6
:100CE0004FFF0123C92248F61A411E2000F048FF99
:100CF0000123A02248F61B411E2000F041FF0123E2
:100D0000572248F61C411E2000F03AFF01234722DB
:100D100048F61D411E2000F033FF0123982248F6BB
:100D20001E411E2000F02CFF0123272248F61F4100
:100D30001E2000F025FF0123122248F620411E202C
:100D400000F01EFF0123482248F621411E2000F03A
:100D500017FF01234C2248F622411E2000F010FF0D
:100D60000123002248F623411E2000F009FF012341
:100D7000002248F624411E2000F002FF0123002239
:100D800048F625411E2000F0FBFE0123012248F613
:100D900026411E2000F0F4FE0123012248F62741DF
:100DA0001E2000F0EDFE0123012248F628411E20FE
:100DB00000F0E6FE0123012248F629411E2000F042
:100DC000DFFE0123012248F62A411E2000F0D8FE52
:100DD0000123012248F62B411E2000F0D1FE012301
:100DE000012248F62C411E2000F0CAFE01230122F8
:100DF00048F62D411E2000F0C3FE0123012248F6D3
:100E00002E411E2000F0BCFE0123012248F62F4196
:100E10001E2000F0B5FE0123012248F630411E20BD
:100E200000F0AEFE0123012248F631411E2000F001
:100E3000A7FE0123012248F632411E2000F0A0FE49
:100E40000123012248F633411E2000F099FE0123C0
:100E5000012248F634411E2000F092FE01230122B7
:100E600048F635411E2000F08BFE0123022248F691
:100E700036411E2000F084FE01233A2248F6374115
:100E80001E2000F07DFE0123802248F638411E20FE
:100E900000F076FE0123182248F639411E2000F0AA
:100EA0006FFE0123712248F63A411E2000F068FED1
:100EB0000123382248F63B411E2000F061FE012349
:100EC0002D2248F63C411E2000F05AFE012340220C
:100ED00048F63D411E2000F053FE0123582248F6FB
:100EE0003E411E2000F04CFE01232C2248F63F41DB
:100EF0001E2000F045FE0123452248F640411E20F9
:100F000000F03EFE0123002248F641411E2000F081
:100F100037FE0123C42248F642411E2000F030FE75
:100F200001238E2248F643411E2000F029FE0123B2
:100F3000212248F644411E2000F022FE0123002217
:100F400048F645411E2000F01BFE0123002248F612
:100F500046411E2000F014FE01231E2248F64741A0
:100F60001E2000F00DFE0123022248F648411E20FB
:100F700000F006FE01233A2248F649411E2000F007
:100F8000FFFD0123802248F64A411E2000F0F8FDB3
:100F90000123182248F64B411E2000F0F1FD0123E9
:100FA000712248F64C411E2000F0EAFD0123382250
:100FB00048F64D411E2000F0E3FD01232D2248F6A6
:100FC0004E411E2000F0DCFD0123402248F64F4137
:100FD0001E2000F0D5FD0123582248F650411E2066
:100FE00000F0CEFD01232C2248F651411E2000F0D6
:100FF000C7FD0123452248F652411E2000F0C0FDE6
:101000000123002248F653411E2000F0B9FD0123C0
:10101000C42248F654411E2000F0B2FD01238E2266
:1010200048F655411E2000F0ABFD0123212248F671
:1010300056411E2000F0A4FD0123002248F657412E
:101040001E2000F09DFD0123002248F658411E207D
:1010500000F096FD01231E2248F659411E2000F0A3
:101060008FFD0123002248F65A411E2000F088FD22
:101070000123002248F65B411E2000F081FD012380
:10108000002248F65C411E2000F07AFD0123FC227C
:1010900048F65D411E2000F073FD0123002248F652
:1010A0005E411E2000F06CFD0123542248F65F4192
:1010B0001E2000F065FD01236F2248F660411E20CE
:1010C00000F05EFD0123732248F661411E2000F00E
:1010D00057FD0123682248F662411E2000F050FDB2
:1010E0000123692248F663411E2000F049FD0123D7
:1010F000622248F664411E2000F042FD0123612275
:1011000048F665411E2000F03BFD01232D2248F6E4
:1011100066411E2000F034FD0123552248F6674148
:101120001E2000F02DFD0123482248F668411E20B4
:1011300000F026FD0123322248F669411E2000F00E
:101140001FFD0123442248F66A411E2000F018FDCD
:1011500001230A2248F66B411E2000F011FD0123F5
:10116000002248F66C411E2000F00AFD01230022F7
:1011700048F66D411E2000F003FD0123002248F6D1
:101180006E411E2000F0FCFC0123FD2248F66F4159
:101190001E2000F0F5FC0123002248F670411E20BD
:1011A00000F0EEFC0123142248F671411E2000F0ED
:1011B000E7FC0123782248F672411E2000F0E0FC93
:1011C0000123012248F673411E2000F0D9FC0123BF
:1011D000FF2248F674411E2000F0D2FC01231D229C
:1011E00048F675411E2000F0CBFC0123002248F692
:1011F00076411E2000F0C4FC01230A2248F6774104
:101200001E2000F0BDFC0123202248F678411E205C
:1012100000F0B6FC0123202248F679411E2000F0A0
:10122000AFFC0123202248F67A411E2000F0A8FCE2
:101230000123202248F67B411E2000F0A1FC01235F
:10124000202248F67C411E2000F09AFC0123202237
:1012500048F67D411E2000F093FC0123012248F650
:101260007E411E2000F08CFC0123E12248F67F41E4
:101270001E2000F085FC0123022248F680411E203A
:1012800000F07EFC0123032248F681411E2000F07D
:1012900077FC01231A2248F682411E2000F070FCE0
:1012A0000123712248F683411E2000F069FC0123CE
:1012B000472248F684411E2000F062FC0123902260
:1012C00048F685411E2000F05BFC0123102248F601
:1012D00086411E2000F054FC0123102248F687416D
:1012E0001E2000F04DFC0123012248F688411E20FB
:1012F00000F046FC0123102248F689411E2000F030
:101300003FFC0123012248F68A411E2000F038FCF0
:101310000123102248F68B411E2000F031FC0123EE
:10132000232248F68C411E2000F02AFC01230922CA
:1013300048F68D411E2000F023FC0123072248F6C9
:101340008E411E2000F01CFC0123012248F68F4133
:101350001E2000F015FC0123832248F690411E2038
:1013600000F00EFC0123012248F691411E2000F0FE
:1013700007FC0123002248F692411E2000F000FCE9
:101380000123002248F693411E2000F0F9FB0123BF
:10139000652248F694411E2000F0F2FB012303224F
:1013A00048F695411E2000F0EBFB01230C2248F685
:1013B00096411E2000F0E4FB0123002248F69741ED
:1013C0001E2000F0DDFB0123102248F698411E206C
:1013D00000F0D6FB0123002248F699411E2000F0C0
:1013E000CFFB0123022248F69A411E2000F0C8FBE1
:1013F00001233A2248F69B411E2000F0C1FB012345
:10140000802248F69C411E2000F0BAFB01231822DE
:1014100048F69D411E2000F0B3FB0123712248F6DF
:101420009E411E2000F0ACFB0123382248F69F416C
:101430001E2000F0A5FB01232D2248F6A0411E200E
:1014400000F09EFB0123402248F6A1411E2000F03F
:1014500097FB0123582248F6A2411E2000F090FB82
:1014600001232C2248F6A3411E2000F089FB012312
:10147000452248F6A4411E2000F082FB01230022F1
:1014800048F6A5411E2000F07BFB0123C42248F64C
:10149000A6411E2000F074FB01238E2248F6A741CE
:1014A0001E2000F06DFB0123212248F6A8411E20DA
:1014B00000F066FB0123002248F6A9411E2000F03F
:1014C0005FFB0123002248F6AA411E2000F058FBD2
:1014D00001231E2248F6AB411E2000F051FB0123E0
:1014E000D82248F6AC411E2000F04AFB0123092215
:1014F00048F6AD411E2000F043FB0123802248F650
:10150000AE411E2000F03CFB0123A02248F6AF4173
:101510001E2000F035FB0123202248F6B0411E209A
:1015200000F02EFB0123E02248F6B1411E2000F01E
:1015300027FB01232D2248F6B2411E2000F020FB9C
:101540000123102248F6B3411E2000F019FB0123AD
:10155000102248F6B4411E2000F012FB0123602245
:1015600048F6B5411E2000F00BFB0123A22248F6ED
:10157000B6411E2000F004FB0123002248F6B741CB
:101580001E2000F0FDFA0123C42248F6B8411E20B7
:1015900000F0F6FA01238E2248F6B9411E2000F031
:1015A000EFFA0123212248F6BA411E2000F0E8FAA2
:1015B0000123002248F6BB411E2000F0E1FA01237E
:1015C000002248F6BC411E2000F0DAFA012318225E
:1015D00048F6BD411E2000F0D3FA0123022248F64E
:1015E000BE411E2000F0CCFA01233A2248F6BF414A
:1015F0001E2000F0C5FA0123802248F6C0411E20BB
:1016000000F0BEFA0123182248F6C1411E2000F066
:10161000B7FA0123712248F6C2411E2000F0B0FA49
:101620000123382248F6C3411E2000F0A9FA012305
:101630002D2248F6C4411E2000F0A2FA01234022C8
:1016400048F6C5411E2000F09BFA0123582248F6B7
:10165000C6411E2000F094FA01232C2248F6C7410F
:101660001E2000F08DFA0123452248F6C8411E20B5
:1016700000F086FA0123002248F6C9411E2000F03E
:101680007FFA0123C42248F6CA411E2000F078FAEE
:1016900001238E2248F6CB411E2000F071FA01236F
:1016A000212248F6CC411E2000F06AFA01230022D4
:1016B00048F6CD411E2000F063FA0123002248F6CF
:1016C000CE411E2000F05CFA01231E2248F6CF41D5
:1016D0001E2000F055FA0123D82248F6D0411E20E2
:1016E00000F04EFA0123092248F6D1411E2000F0F5
:1016F00047FA0123802248F6D2411E2000F040FA2A
:101700000123A02248F6D3411E2000F039FA01231C
:10171000202248F6D4411E2000F032FA0123E022B4
:1017200048F6D5411E2000F02BFA01232D2248F661
:10173000D6411E2000F024FA0123102248F6D7419A
:101740001E2000F01DFA0123102248F6D8411E2069
:1017500000F016FA0123602248F6D9411E2000F05D
:101760000FFA0123A22248F6DA411E2000F008FAFF
:101770000123002248F6DB411E2000F001FA01237C
:10178000C42248F6DC411E2000F0FAF901238E2223
:1017900048F6DD411E2000F0F3F90123212248F62E
:1017A000DE411E2000F0ECF90123002248F6DF4163
:1017B0001E2000F0E5F90123002248F6E0411E203A
:1017C00000F0DEF90123182248F6E1411E2000F066
:1017D000D7F90123002248F6E2411E2000F0D0F99B
:1017E0000123002248F6E3411E2000F0C9F901233D
:1017F000002248F6E4411E2000F0C2F90123002235
:1018000048F6E5411E2000F0BBF90123002248F60E
:10181000E6411E2000F0B4F90123002248F6E7411A
:101820001E2000F0ADF90123002248F6E8411E20F9
:1018300000F0A6F90123002248F6E9411E2000F03D
:101840009FF90123002248F6EA411E2000F098F992
:101850000123002248F6EB411E2000F091F90123FC
:10186000002248F6EC411E2000F08AF901230022F4
:1018700048F6ED411E2000F083F90123002248F6CE
:10188000EE411E2000F07CF90123002248F6EF41D2
:101890001E2000F075F90123002248F6F0411E20B9
:1018A00000F06EF90123002248F6F1411E2000F0FD
:1018B00067F90123002248F6F2411E2000F060F98A
:1018C0000123002248F6F3411E2000F059F90123BC
:1018D000002248F6F4411E2000F052F901230022B4
:1018E00048F6F5411E2000F04BF90123002248F68E
:1018F000F6411E2000F044F90123002248F6F7418A
:101900001E2000F03DF90123002248F6F8411E2078
:1019100000F036F90123002248F6F9411E2000F0BC
:101920002FF90123002248F6FA411E2000F028F981
:101930000123002248F6FB411E2000F021F901237B
:10194000002248F6FC411E2000F01AF90123002273
:1019500048F6FD411E2000F013F90123002248F64D
:10196000FE411E2000F00CF90123DD2248F6FF4164
:101970001E2000F005F90123012248F2EC511E203F
:1019800000F0FEF80123242248F260511E2000F0EE
:10199000F7F80123112248F263511E2000F0F0F8FD
:1019A00001230F2248F264511E2000F0E9F80123C0
:1019B000422248F602211E2000F0E2F80123022212
:1019C00048F243511E2000F0DBF80123102248F2B8
:1019D00044511E2000F0D4F8012300224FF40641A8
:1019E0001E2000F0CDF80123F32248F202611E20F0
:1019F00000F0C6F80123022248F203611E2000F025
:101A0000BFF801230C2248F204611E2000F0B8F850
:101A10000123052248F206611E2000F0B1F80123DF
:101A2000002248F207611E2000F0AAF801230222DA
:101A300048F252611E2000F0A3F804233E4A48F207
:101A400071611E2000F09CF804233C4A48F2756145
:101A50001E2000F095F80123002248F280611E202C
:101A600000F08EF80123012248F24A511E2000F0B6
:101A700087F802E0642000F0D8FB6D1C00230122EF
:101A800048F220511E2000F079F80400C4F3C01081
:101A9000002806D1B5F5967FECD92021284800F022
:101AA0007FFA4FF47A7000F0C0FB0123FF2248F266
:101AB0000B511E2000F064F8022340F6BF7214217F
:101AC0001E2000F05DF8002502E0642000F0ADFB70
:101AD0006D1C0023012248F220511E2000F04EF818
:101AE0000400C4F3C010002806D1B5F5967FECD9E8
:101AF0002021134800F054FA022340F63742042113
:101B00001E2000F03DF80223002206211E2000F0D6
:101B100037F8042306224FF488711E2000F030F8B5
:101B2000042306224FF444711E2000F029F84FF4DC
:101B30007A7000F07AFB31BDBA490C0289B0E1013C
:101B4000000C014038B504000D0000F078FA7C204C
:101B500000F0E2FA00F0B5FA2000C0B200F0DCFAC2
:101B600000F0AFFA2800C0B200F0D6FA00F0A9FAEF
:101B700000F086FA0A2000F039FB31BD00207047E2
:101B8000F8B506000F001D0000A800210160002428
:101B900010008DF80000100A8DF80100100C8DF86F
:101BA0000200100E8DF8030000F049FA3000C0B2B8
:101BB00000F0B2FA00F085FABFB2380AC0B200F005
:101BC000ABFA00F07EFA3800C0B200F0A5FA00F0DF
:101BD00078FA00A8040005E0207800F09DFA641C63
:101BE00000F06FFA2800451EC0B20028F4D100F0C2
:101BF00047FA0A2000F0FAFA0020F2BDDFF8880266
:101C0000006850F00100DFF880120860DFF87C0205
:101C10000068DFF87C120840DFF870120860DFF817
:101C200068020068DFF86C120840DFF85C12086098
:101C3000DFF85402006830F48020DFF84C120860AE
:101C4000DFF84802006830F4FE00DFF84012086058
:101C50005FF41F00DFF8401208607047DFF82812B9
:101C6000096831F48031DFF820221160DFF81812A2
:101C7000096831F48021DFF810221160B0F5803F4F
:101C800003D0B0F5802F09D011E0DFF8FC01006827
:101C900050F48030DFF8F011086008E0DFF8E80168
:101CA000006850F4A020DFF8E0110860FFE77047FB
:101CB00080B50020009000200021312000F0C2F803
:101CC00001000098401C00900098B0F5A06F02D071
:101CD000C9B20029F1D0312000F0B4F8002801D0B9
:101CE000012000E00020C0B202BD0022674B1B684B
:101CF0001A0032F47C1208430243644802607047C1
:101D0000C0B26649086070470021604A126811003D
:101D10008908890001435D48016070475B4800689D
:101D200010F00C0070470021584A1268110031F081
:101D3000F00101435548016070470021534A126881
:101D4000110031F4E0610143504801607047002107
:101D50004E4A1268110031F4605151EAC0014B48FB
:101D60000160704730B40022002100230024474D59
:101D70002D6815F00C052A00002A04D0042A05D08D
:101D8000082A06D021E04749016020E0454901606A
:101D90001DE03E49096811F470113C4A126812F4C2
:101DA0008033890C891C002B03D13F4A51430160C9
:101DB0000AE0364A1268920303D53B4A5143016058
:101DC00002E0384A5143016001E0364901602F4981
:101DD000096811F0F00212093449545C0168E140CD
:101DE00041602A49096811F4E062120A2F49545CE3
:101DF0004168E14081602549096811F46052D20AC6
:101E00002A49545C4168E140C1602049096811F4E5
:101E10004042920B2649545CC168B1FBF4F1016168
:101E200030BC7047C9B2002905D02249096808436F
:101E30002049086005E01F49096831EA00001D4992
:101E40000860704710B4002200230021C0B244098A
:101E5000E4B22200012A02D10B490B6806E0022AF3
:101E600002D10F490B6801E013490B68C0B210F0B2
:101E70001F0233FA02F0C00701D5012100E0002162
:101E80000800C0B210BC70470010024004100240AD
:101E90000000FFF8FFFFF6FE08100240600042421B
:101EA0002010024000127A0000093D00E4000020EA
:101EB000140100201810024024100240F0B4002247
:101EC0000026002400250023002791F803C01CF001
:101ED0000F0C624691F803C05FEACC6C01D58B7899
:101EE0001A430B781B0621D00368002406E0CD7846
:101EF000482D02D10125A5400561641C082C14D28F
:101F00000125A5400E882E40AE42F6D1A5000F2631
:101F100016FA05F7BB4312FA05F52B43CD78282DA9
:101F2000E5D10125A5404561E7E703600B88FF2B5C
:101F300026DD4368002420E0012514F10806B540A1
:101F40000E882E40AE4217D1A5000F2616FA05F7CF
:101F5000BB4312FA05F52B43CD78282D04D101257A
:101F600014F10806B5404561CD78482D04D101250E
:101F700014F10806B5400561641C082CDCD34360ED
:101F8000F0BC70470022C06889B2084201D001222B
:101F900000E000221000C0B2704789B201617047B2
:101FA00089B241617047D2B2002A02D089B2016180
:101FB00001E089B24161704710B400220F2311F093
:101FC0000304E4B2A400A3401A00C9B28B100E4C63
:101FD00054F8233033EA0202C9B28B100A4C44F899
:101FE0002320C9B28A10084B53F82220C0B211F046
:101FF0000303DBB29B0098401043C9B28910024A28
:1020000042F8210010BC70470800014080B5012152
:102010000820FFF707FF4FF44060ADF800001020E4
:102020008DF8030003208DF8020000A95148FFF746
:1020300045FF4FF440614F48FFF7AFFF01BD80B54A
:102040004D4800687FF0F02108404B4908604A483D
:10205000006850F440504849086001204749086032
:10206000012047490860042000F0A2F800204349FD
:102070000860042000F09CF800204149086001BD80
:1020800080B53D4800687FF0F02108403A4908607B
:102090003948006850F440503749086000203849FA
:1020A0000860002035490860042000F081F8012014
:1020B00033490860012031490860042000F078F8B5
:1020C00001BD10B500242C48006830F470402A4946
:1020D00008602948006850F4004027490860012042
:1020E00026490860012000F063F8012024490860B7
:1020F000012000F05DF823480068002807D0641C28
:10210000E4B2FB2CF7DBFFF7BBFF012003E000206C
:102110001B490860002010BD38B50400164800684F
:102120007FF0F0210840144908601348006850F41B
:10213000405011490860002011490860002515E051
:10214000E4B2E009C0B20D4908606400022000F06A
:102150002FF801200A490860022000F029F8002029
:1021600007490860022000F023F86D1CEDB2082D2D
:10217000E6DB31BD000C0140040C0140AC81214282
:10218000A88121422C81214280B57FF0040000F01B
:10219000B5F8354800683549B0FBF1F034490870AE
:1021A000334800784FF47A7148433249088001BDC2
:1021B0002F49097848433049086000202F490860BA
:1021C0002F48006850F001002D4908602C48006835
:1021D00010F001100128F9D029480068400840009B
:1021E00027490860002025490860704780B22149CE
:1021F0000988484320490860002020490860204899
:10220000006850F001001E4908601D48006810F089
:1022100001100128F9D01A48006840084000184908
:102220000860002015490860704780B2114909888C
:1022300048431149086000201049086010480068B0
:1022400050F001000E4908600D48006810F00110C0
:102250000128F9D00A480068400840000849086091
:1022600000200649086070471801002000127A001B
:10227000660100205C01002014E000E018E000E0AE
:1022800010E000E02549084325490860704710B474
:10229000002100220F23C478002C1DD0204909689A
:1022A00011F4E061D1F5E061090AD1F10402CB40FB
:1022B0004178914082781A40114309010278194B04
:1022C000D1540121027812F01F0291400078401190
:1022D000154A42F8201009E00121027812F01F028D
:1022E000914000784011114A42F8201010BC70470C
:1022F0000F4A114008430F4908607047042806D16F
:102300000D48006850F004000B49086005E00A48D9
:10231000006830F004000849086070470000FA05C2
:102320000CED00E000E400E000E100E080E100E00E
:1023300080FFFF1F08ED00E010E000E080B580B2F4
:10234000002806D10120DFF8BC1B096808820020A4
:1023500008E0DFF8640B006800688047DFF8A40B32
:1023600000680A3002BD80B5DFF89C0B4078DFF8CA
:10237000941B0968C97888421AD3DFF8880B006873
:102380008078002814D1DFF87C0B00688088002852
:102390000ED1DFF8700B0068C078DFF8681B0968A1
:1023A0008872DFF8140B006840688047002000E066
:1023B000022002BD80B580B2002806D10120DFF8DE
:1023C000441B09680882002008E0DFF8EC0A006876
:1023D00080688047DFF82C0B00680C3002BD80B5A8
:1023E000DFF8200B0068C178DFF8180B006840792F
:1023F000DFF8182B126892699047DFF8081B09680C
:10240000897A00292AD0C0B200280BD1DFF8F41A4B
:1024100009680979002905D1DFF8E81A096889787F
:10242000002901D002201AE0C0B2002816D1DFF83E
:10243000880A0068C0688047DFF8C80A00684079E9
:10244000DFF8C01A0968C872DFF8B80A0068C078F7
:10245000DFF8B01A09680873002000E0022002BD0E
:1024600080B580B2002806D10220DFF8981A0968EA
:102470000882002032E00020DFF8941A0880DFF89C
:10248000840A006800787F21084231D1DFF8740A9D
:102490000068407A810608D5DFF8741A097851F08F
:1024A0000201DFF86C2A117007E0DFF8641A09787E
:1024B00011F0FD01DFF8582A117040060FD5DFF842
:1024C000500A007850F00100DFF8441A0870DFF875
:1024D000E809006800698047DFF8340A02BDDFF8C8
:1024E000300A007810F0FE00DFF8241A0870EEE7DA
:1024F000DFF8100A0068007810F07F00012802D190
:10250000DFF80C0AEAE7DFF8FC090068007810F051
:102510007F0002282CD1DFF8EC090068417911F026
:102520000F00090611D5C0B2DFF8E81951F82000F4
:1025300010F030001028CAD1DFF8D409007850F02C
:102540000100DFF8CC190870C1E7C0B2DFF8C41988
:1025500051F8200010F44050B0F5805FB7D1DFF89B
:10256000B009007850F00100DFF8A4190870AEE758
:102570000020B3E710B5DFF88C090068007810F090
:102580007F0000280BD1DFF87C090068407A10F04A
:10259000DF00DFF8701909684872002096E0022811
:1025A00040F09380DFF85C0900684088002805D17E
:1025B000DFF8500900680079002801D0022085E08A
:1025C000DFF84409DFF83C190968497931F08003E4
:1025D0001C00DFF8302912685279120606D5DFF8A0
:1025E000342952F8242012F0300205E0DFF82429C3
:1025F00052F8242012F440520078834207D2002A75
:1026000005D0DFF800090068807A002801D1022097
:102610005CE0080611D5DFF8FC0850F8240010F043
:10262000300010284AD12000C0B200F033FD302124
:102630002000C0B200F0B5FC40E0DFF8D80850F848
:10264000240010F44050B0F5805F37D1002C1DD12C
:10265000DFF8C40890F82C1089B22000C0B200F056
:1026600079FDDFF8B00850F824004BF68F71084070
:1026700090F4805090F4005040F4004050F08000FE
:1026800080B2DFF8901841F8240017E02000C0B2B3
:1026900000F0E7FCDFF87C0850F824004BF68F715F
:1026A000084090F4805090F4005040F4004050F006
:1026B000800080B2DFF85C1841F82400DFF8F807EA
:1026C000006840698047002000E0022010BD80B50E
:1026D000DFF830080068417931F08000DFF8242805
:1026E00012685279120606D5DFF8282852F8202001
:1026F00012F0300205E0DFF81C2852F8202012F416
:102700004052DFF804381B7898420DD2DFF8F437D6
:102710001B685B88002B07D1002A05D0DFF8E4276F
:102720001268927A002A01D102202CE0090612D503
:10273000DFF8E01751F8201048F6BF72114091F011
:10274000100141F4004151F0800189B2DFF8C42743
:1027500042F8201011E0DFF8BC1751F820104BF6BA
:102760008F72114091F4805141F4004151F0800189
:1027700089B2DFF8A02742F82010DFF83C07006894
:1027800080698047002002BD80B5DFF878070068C7
:10279000407A50F02000DFF86C1709684872DFF8C3
:1027A00018070068C0698047002002BDDFF8542781
:1027B0001268528A80B2002807D18888801ADFF810
:1027C000441709680882002001E008681018704763
:1027D00070B5DFF83007006810F110042088A16898
:1027E00000291AD0002818D0A588A84200D20500D8
:1027F000280080B2A168884706002088401B2080FE
:10280000608828186080002000F08AFC2A0092B2BC
:10281000010089B2300000F0EEFC208800280CD0C6
:102820004FF44050DFF8F41608800021002000F03B
:1028300084FC3020DFF8E81608802088A1888842D0
:1028400005D30320DFF8BC16096808721DE0208854
:10285000002805D00520DFF8AC160968087214E0DE
:102860002088002811D10620DFF898160968087220
:102870000020DFF8B016096889B2DFF8AC2642F80C
:1028800011003020DFF89816088070BDF8B5DFF829
:102890007406006810F110052888DFF868160968CA
:1028A0000C7A00281FD1042C1DD1DFF88006007897
:1028B000012812D10020DFF86C16096889B2DFF810
:1028C000682642F811003020DFF8541608800424EE
:1028D0000020DFF85816087004E007241020DFF805
:1028E000401608802BE0AE88864201D3042400E025
:1028F0000224B04200D20600300080B2A9688847A6
:102900000700002000F0FFFB320092B2010089B204
:10291000380000F057FC310089B2002000F00DFCB7
:102920002888801B28806888301868803020DFF86D
:10293000F01508804FF44050DFF8E0150880DFF80C
:10294000C40500680472F1BD10B50220DFF8B415AB
:1029500009684C78DFF8AC15096809787F221142C4
:102960004ED1092C02D1FFF7FEFC69E0052C1BD1EA
:10297000DFF890050068C078802811DADFF8840558
:102980000068807800280BD1DFF87805006880881F
:10299000002805D1DFF86C050068807A002801D096
:1029A00008206FE000204BE0032C10D1DFF8540525
:1029B0000068C078012808D1DFF8480500688088E1
:1029C000002802D1FFF7E0FE3AE0022038E0012CB7
:1029D00036D1DFF830050068C07801280ED1DFF865
:1029E000240500688088002808D1DFF818050068F1
:1029F000407A800602D5FFF7BDFD21E002201FE0EE
:102A0000DFF800150968097811F07F01012904D168
:102A10000B2C15D1FFF7E3FC12E0DFF8E81409688E
:102A2000097811F07F01022909D1012C02D1FFF7A9
:102A3000A1FD05E0032C03D1FFF749FE00E00220D1
:102A4000C0B200280BD02000C0B2DFF8C014096863
:102A500049698847C0B2032801D1092012E0C0B2F9
:102A6000002801D008200DE006200021DFF8B42462
:102A7000126892B2DFF8B03443F812103021DFF858
:102A8000A0241180DFF87C140968087210BD38B5E5
:102A9000DFF870040068407800240025062824D15F
:102AA000DFF86004006800787F21084240F0C680AB
:102AB000DFF8500400688078C0B2012804D1DFF844
:102AC0004C040068C469B9E0C0B2022804D1DFF840
:102AD0003C040068046AB1E0C0B2032840F0AE8054
:102AE000DFF828040068446AA8E0002871D1DFF804
:102AF00014140968498800296BD1DFF808140968A3
:102B0000C988022965D1DFF8FC1309680979002911
:102B10005FD1DFF8F003006800787F21084208D118
:102B2000DFF8E00300688088002802D1DFF8004465
:102B300084E0DFF8D0030068007810F07F000128FF
:102B400014D10021DFF8BC0300684079DFF8BC2312
:102B5000126892699047002870D1DFF8A8030068D6
:102B6000807A00286AD0DFF8C84367E0DFF8940372
:102B70000068007810F07F0002285FD1DFF884033E
:102B80000068407910F00F00DFF878130968497980
:102B900011F07001DFF86C2312685279120606D525
:102BA000DFF8702352F8202012F0300205E0DFF841
:102BB000642352F8202012F44052DFF84C331B7883
:102BC00098423BD2002939D1002A37D0DFF8604340
:102BD00034E0082809D1DFF82C03006800787F2151
:102BE00008422BD1DFF84C4328E00A2826D1DFF831
:102BF00014030068007810F07F0001281ED1C1483E
:102C00000068807A002819D0BE48006840880028F3
:102C100014D1BC480068007900280FD1B948006879
:102C2000C08801280AD10021B64800684079B74A17
:102C3000126892699047002800D1BF4C20000028FC
:102C400014D0B04800684582AE4800688461002016
:102C5000A0470020AB490968098A4FF6FF729142EC
:102C600013D10920A7490968087267E0A5480068E0
:102C70004078A649096809698847C0B20328E9D1A4
:102C80000920A0490968087258E0C0B2022804D09F
:102C90009C480068008A002804D1082099490968E6
:102CA00008724BE097480068007800063ED59548CA
:102CB0000068C0880090009892490968098A884293
:102CC00004D200988F490968088225E08D48006881
:102CD000008A8C490968C98888421DD289480068E1
:102CE000008A8A49096891F82C1089B2884203D277
:102CF00000208E4908700FE082480068008A8349EE
:102D0000096891F82C1090FBF1F201FB12000028E9
:102D100002D10120854908707C48006890F82C0099
:102D2000784909688882FFF7B1FD07E003207549FB
:102D3000096808724FF440507849088031BD38B5B1
:102D400001247848006880B27C4931F810004000C6
:102D500000F1804515F5C0456A480068007A0928E9
:102D600026D028786749096808706D1C287865495D
:102D7000096848706D1CA4B215EB44052800851C39
:102D8000008800F017FA5F4909684880A4B215EB83
:102D900044052800851C008800F00CFA5949096890
:102DA0008880A4B215EB4405288856490968C88074
:102DB000012054490968087252480068C0880028F8
:102DC00002D1FFF7C1FD01E0FFF761FE00F055F809
:102DD00032BD80B54B480068007A022801D0042833
:102DE00005D1FFF753FD47480068007A1CE006282C
:102DF00019D144480068407805280ED14148006840
:102E000000787F21084208D13E480068C07800F071
:102E100055F829480068006A80473C480068806887
:102E20008047082000E0082036490968087200F051
:102E300024F802BD80B533480068007A022801D02A
:102E4000042801D1082012E0032801D0052805D16B
:102E5000FFF7BEFC2B480068007A08E0072805D180
:102E60002A480068C0688047082000E008202549FB
:102E70000968087200F001F802BD80B5264890F894
:102E80002C1089B2002000F065F91E480068007A15
:102E9000082806D14FF4805020490880102020498E
:102EA000088018480068007A092801D1012000E054
:102EB0000020C0B202BD00004C01002030B4124915
:102EC0000A78002114E00B00DBB2124C54F82330D6
:102ED00048F68F7423400C00E4B2234343F40043CC
:102EE00053F080030C00E4B20A4D45F82430491C2D
:102EF0009142E8D3C0B250F080001149086030BC64
:102F000070470000440100201C01002048010020FF
:102F100040010020005C00404000002060010020D3
:102F200062010020505C0040046000406701002006
:102F3000612400083D230008B52300080860004014
:102F40004C5C0040704710B450F8041B81B102681B
:102F50001218001D50F8043BDC0744BFA9F101041E
:102F6000E31852F8044B43F8044B091FF9D1EBE77F
:102F700010BC70474FF6F8710840DFF82012086067
:102F80007047C0B2DFF8182252F8202048F68F139D
:102F90001A40114389B2C0B2DFF8042242F820106F
:102FA0007047C0B2DFF8F82152F8202048F6BF730E
:102FB0001A40CB0601D592F01002890601D592F095
:102FC000200242F4004151F0800189B2C0B2DFF822
:102FD000D02142F820107047C0B2DFF8C42152F867
:102FE00020204BF68F731A40CB0401D592F4805207
:102FF000890401D592F4005242F4004151F080015D
:1030000089B2C0B2DFF8982142F820107047C0B2F0
:10301000DFF88C1151F820104BF68F72114091F4AB
:10302000805191F4005141F4004151F0800189B286
:10303000C0B2DFF86C2142F820107047C0B2DFF850
:10304000601151F8201048F68F62114041F40041A0
:1030500051F0800189B2C0B2DFF8442142F820105B
:103060007047C0B2DFF8381151F82010490410D56C
:10307000C0B2DFF82C1151F8201048F68F721140C1
:1030800041F4404151F08001C0B2DFF8142142F810
:1030900020107047C0B2DFF8081151F8201049061F
:1030A00010D5C0B2DFF8F81051F8201048F68F7232
:1030B000114041F4004151F0C001C0B2DFF8E020FE
:1030C00042F820107047DFF8D420126892B2C0B2E4
:1030D00012EBC000DFF8CC2089B2490889B2490060
:1030E00042F810107047DFF8B420126892B2C0B2F4
:1030F00012EBC000DFF8B02089B2490889B249005C
:1031000042F810107047DFF89410096889B2C0B215
:1031100011EBC000DFF88C1051F8100080B270473E
:10312000DFF87810096889B2C0B211EBC000DFF88F
:10313000781051F8100080B27047DFF860201268F4
:1031400092B2C0B212EBC000DFF8602089B242F840
:1031500010107047DFF84420126892B2C0B212EB30
:10316000C000DFF84C2012EB400089B23F290BDB96
:1031700089B24A091F23194200D1521E92B291020C
:1031800051F40041016007E089B24A08C90700D53F
:10319000521C92B29102016070470000505C0040E6
:1031A000005C004000600040086000400460004097
:1031B0000C600040010080B2C9B2090251EA10203F
:1031C00080B2704710B492B2521C521089B24900BA
:1031D00001F1804313F5C04309E00178401C0478F5
:1031E00051EA042119809B1C9B1C401C521E002A82
:1031F000F3D110BC704792B2521C521089B24900F0
:1032000001F1804111F5C04105E00B680380091D03
:10321000401C401C521E002AF7D1704780B500F0B8
:10322000DFF9002083490968887200F005FA002060
:10323000814908604FF43F40804908807F480088FA
:103240007F49086000207F49086001BD80B50020EB
:10325000784909688872002076490968C8727A48F6
:10326000C0797449096848720020FFF783FE4FF463
:1032700000710020FFF785FE10210020FFF791FE6E
:1032800018210020FFF72FFF58210020FFF71BFF18
:103290000020FFF7D3FE6D4890F82C1089B2002073
:1032A000FFF758FF0020FFF7B2FE4FF4C061012086
:1032B000FFF767FE98210120FFF715FF402101204D
:1032C000FFF748FF4FF440510120FFF785FE4FF410
:1032D000C0610220FFF755FE4FF48C710220FFF70A
:1032E000F2FE40210220FFF728FF20210220FFF7F5
:1032F00058FE0120534908600020FFF7DFFD01BDA3
:103300007047704780B50021C0B206281BD1494ADA
:103310001268127812F07F02012A14D1454A12680D
:103320005279002A0FD1434800688078222802D1C0
:103330000FF2A90113E03F480068807821280ED1E0
:103340000FF2A5010BE03B4A1268127812F07F02DF
:10335000212A04D1C0B2032801D10FF2C101080013
:10336000002801D1022009E0324800688161002074
:10337000304A1268508200208847002002BD80B584
:103380002C490968097811F07F01212905D1C0B2C3
:103390000B2802D100F03AF800E0022002BD80B50F
:1033A0002B4980B2FFF702FA02BD80B5294980B2ED
:1033B000FFF7FCF902BD80B51E490968C978C9B29A
:1033C000052901DB002006E0C9B2234A12EBC10146
:1033D00080B2FFF7EBF902BD0000000080B51F4985
:1033E00080B2FFF7E3F902BD80B51D4980B2FFF757
:1033F000DDF902BDC9B2002901D0022005E0C0B24A
:10340000002801D0022000E0002070470948006831
:10341000C078C0B2134908600020704780B200280D
:1034200005D10120034909680882002000E00D4809
:103430007047000044010020445C00405E01002011
:10344000405C004054010020983E000840000020ED
:10345000F4000020FC000020700000200401002087
:103460000C0100205001002080B500F047F8002139
:103470005FF00060FEF73CFF4FF4C050ADF8000075
:1034800010208DF8030003208DF8020000A9634886
:10349000FEF714FD4FF400616048FEF781FD4FF424
:1034A00080515E48FEF77CFD4FF4C050ADF800003F
:1034B00004208DF8030003208DF8020000A957486E
:1034C000FEF7FCFC00F003F8FEF75EFE01BD80B5E0
:1034D00001210820FEF7A6FC2020ADF800001020F6
:1034E0008DF8030003208DF8020000A94C48FEF778
:1034F000E5FC20214A48FEF750FD01BD00B585B02E
:10350000FEF77CFB5FF48030FEF7A8FBFEF7D0FBF4
:10351000C0B20128FAD1C0B2012825D10020FEF79F
:1035200002FC0020FEF713FC4FF48060FEF705FC60
:10353000022000F023F9102000F02CF95FF4801134
:103540005FF44030FEF7D1FB0120FEF7D9FB3920B4
:10355000FEF778FC0028FAD00220FEF7D5FBFEF734
:10356000DDFB0828FBD116E00020FEF777FB5FF4B7
:10357000E0110020FEF7B9FB0120FEF7C1FB392066
:10358000FEF760FC0028FAD00220FEF7BDFBFEF734
:10359000C5FB0828FBD100A8FEF7E4FB05B000BD81
:1035A00003202049086070471F48807A002803D014
:1035B00005201C49086002E001201A490860704794
:1035C00080B5C0B2002805D04FF480711448FEF7D2
:1035D000E7FC04E04FF480711148FEF7DEFC01BD0A
:1035E0001248006812490968002815D0114A9070E5
:1035F000020A104B1A71020C0E4B9A71000E0D4A02
:1036000010720C488172080A0A4A1073080C094AA1
:103610009073080E074908747047000000080140C5
:10362000000C01405401002024010020E8F7FF1F96
:10363000ECF7FF1F9000002080B50120FFF7C0FFCE
:10364000012080B249490860002049490880484863
:103650000088464908600020464908604FF4E05061
:10366000434908804248008840490860002002BD64
:1036700080B53E48006850F0080080B23B490860C1
:103680003A48006850F0040080B238490860FFF7FB
:1036900087FF01BD80B5354800684FF6FB710840D3
:1036A00080B232490860FFF77FFF4FF43F402F4957
:1036B000086001BD80B5C0B2072801D02E4908704E
:1036C0002D480078002808D0022812D00BD30428F7
:1036D00023D015D305282ED042E0FFF7DBFF0620CC
:1036E000254908703FE0FFF7D5FF04202249087004
:1036F00039E002202049487003201F49087032E059
:103700001D484078401E1C4948701B4840780028DE
:1037100002D104201849087025E01448006850F0D0
:10372000100080B2114908600520134908700A2072
:103730001149487017E010484078401E0E49487003
:103740000D48407800280AD1084800684FF6EF710C
:10375000084080B20549086006200749087002E069
:1037600006200549087001BD00000000405C0040D3
:103770005E010020445C0040580100200021DFF879
:1037800034201268110011F038010143DFF82400E1
:1037900001607047DFF81C10096831F01001DFF894
:1037A00014201160DFF80C1009680843DFF80410DA
:1037B000086070470020024080B50020ADF800008E
:1037C00039E086480078864951F82000ADF80000BD
:1037D000BDF80000000414D580480078804951F8F5
:1037E000200040F68F7108407C4909787C4A42F8F5
:1037F00021007A4800787B4911EB800050F8040CD6
:103800008047BDF80000000615D57448007874495B
:1038100051F8200080B248F60F7108406F490978CE
:103820006F4A42F821006D4800786F4911EB800023
:1038300050F8040C80476D4800686D49088000040A
:1038400040F1CA806A48008810F00F006349087090
:10385000624800780028B4D1614800686549088052
:103860006448008810F0300063490880614800888F
:1038700010F440505F4908805948006880B24BF608
:10388000BF71084090F4005090F0200080B240F4E6
:10389000004050F080005249086055480088C0063A
:1038A0002FD44F48006880B248F60F7108404C4949
:1038B0000860FFF78EFA4A48006880B24BF6BF7185
:1038C00008404C490988C90401D590F48050494901
:1038D0000988890401D590F4005047490988C90630
:1038E00001D590F0100044490988890601D590F06F
:1038F000200080B240F4004050F080003849086059
:103900006AE037480068ADF80000BDF80000000527
:103910002ED53348006840F68F7108403049086062
:10392000FFF70DFA2E48006880B24BF6BF710840D1
:1039300030490988C90401D590F480502D4909887F
:10394000890401D590F400502B490988C90601D596
:1039500090F0100028490988890601D590F02000D0
:1039600080B240F4004050F080001D49086033E010
:10397000BDF8000000047FF55EAF1948006840F60E
:103980008F71084016490860FFF754FA1448006820
:1039900080B24BF6BF71084016490988C90401D5A9
:1039A00090F4805013490988890401D590F400509F
:1039B00011490988C90601D590F010000E490988FF
:1039C000890601D590F0200080B240F4004050F00C
:1039D000800003490860FFE701BD00006901002085
:1039E000005C0040C8000020AC000020445C0040A7
:1039F00064010020600100206201002080B54F4872
:103A0000006850F001004D4908604D4800684D497C
:103A100008404B490860494800684B4908404749FD
:103A200008604648006830F48020444908604448F3
:103A3000006830F4FE00424908605FF41F0043490B
:103A4000086000F005F85FF000604149086001BDC2
:103A500080B500F001F801BD82B000200190002087
:103A600000903648006850F480303449086033488C
:103A7000006810F4003000900198401C01900098FC
:103A8000002803D10198B0F5A06FF0D12B48006851
:103A9000800302D50120009001E0002000900098F2
:103AA000012847D12B48006850F0100029490860D0
:103AB000284800688008800026490860254800687A
:103AC00050F00200234908601D4800681C49086046
:103AD0001B4800681A4908601948006850F4806063
:103AE000174908601648006830F47C1014490860D3
:103AF0001348006850F4E810114908600F48006846
:103B000050F080700D4908600C4800688001FBD5BA
:103B10000B48006880088000094908600848006870
:103B200050F00200064908600548006810F00C00DB
:103B30000828F9D102B070470000000000100240D0
:103B4000041002400000FFF8FFFFF6FE08100240DC
:103B500008ED00E00020024080B534480068344998
:103B6000088033480088334909880840400506D555
:103B70004FF6FF302D4908602F48406880472C4899
:103B800000882C4909880840800403D54DF6FF7051
:103B90002649086026480088264909880840C0044C
:103BA00006D54EF6FF70214908600020FFF782FD20
:103BB0001F4800881F490988084000050DD51F4887
:103BC0000078002802D0FFF753FD02E00220FFF743
:103BD00071FD4FF2FF7015490860154800881549BE
:103BE00009880840800508D54FF6FF500F49086046
:103BF00013480078401C124908700D4800880D4990
:103C000009880840C00506D54FF6FF6007490860DF
:103C10000720FFF74FFD064800880649098808403D
:103C2000000401D5FFF7C8FD01BD00BF445C0040A2
:103C3000640100205E0100204000002020010020DF
:103C40006A01002080B501210420FEF7EBF8032073
:103C5000ADF8000048208DF8030000A90248FEF7E7
:103C60002DF901BD0000000000080140E0B5FFF79C
:103C7000E9FF4FF4A060FEF705FB01210120FEF7EC
:103C8000D1F800210020FEF797F9012001900020D3
:103C90008DF8080008208DF8090001A800F03CF814
:103CA00001210020FEF788F90220019008208DF8FC
:103CB000090001A800F030F806208DF8000002206D
:103CC0008DF8010003208DF8020001208DF803001B
:103CD00000A8FEF7DCFA07208DF8000002208DF81E
:103CE000010001208DF8020001208DF8030000A8DA
:103CF000FEF7CDFA07BD50F8041B61B150F8042B54
:103D0000D30744BFA9F101039A18002342F8043BEA
:103D1000091FFAD1EFE770470021234A1100827989
:103D2000002A35D0204A126803689A431E4B1A6055
:103D30001E4A126803689A431C4B1A600279511894
:103D40000A6803681A430A601949096802689143BE
:103D5000174A11601749096802689143154A1160B2
:103D6000417910290CD11249096802681143104A9F
:103D7000116010490968006808430E4908600EE0A8
:103D80000949427951180A6800681043086006E042
:103D9000027951180A68006832EA0000086070472A
:103DA0000549086070470000000401400404014018
:103DB000080401400C04014014040140704780B520
:103DC000FFF7CAFE01BD80B520210F48FEF7DAF8E3
:103DD000D0F10102D2B220210B48FEF7E4F8012015
:103DE000FFF7DEFF01BD80B520210748FEF7CAF8C6
:103DF000D0F10102D2B220210348FEF7D4F802200C
:103E0000FFF7CEFF01BD0000000C01407047FEE748
:103E1000FEE7FEE7FEE77047704770477047000017
:103E200080B501200B49087020210B48FEF7AAF845
:103E3000D0F10102D2B220210748FEF7B4F84022A7
:103E400098210648FFF7D7F94FF440510120FFF7BA
:103E5000C3F801BD68010020000C014000000020F3
:103E60007047000080B5FFF7FFFAFFF7FFFEFCF791
:103E70003DF920210748FEF793F84FF4FA70FEF75A
:103E8000B5F920210348FEF788F84FF4FA70FEF7E1
:103E9000ADF9EEE7000C01400902290001010080A4
:103EA0003209040000020300000009211001000192
:103EB000222100070582034000200705010340007E
:103EC0001000000010B5074979441831064C7C44B5
:103ED000163404E00A68081D511888470146A142BB
:103EE000F8D110BD2C0000004C000000058C090129
:103EF000A101090315002600FF75089540810209FC
:103F00000415002600FF750895409102C0000000CE
:103F1000E7FDFFFF48000000240100200000000032
:103F200027F0FFFF240100004C01000000000020EA
:103F30000000000000F00BF8002801D0FFF7C2FFDE
:103F40000020C046C046FFF78DFF00F002F80120B8
:103F5000704700F001B800000746384600F002F84C
:103F6000FBE7000080B5C046C046024A1100182099
:103F7000ABBEFBE7260002001803490044004500E1
:103F800041004C0045004E0053005F006B003200C2
:103F90001201000200000040830454570002010295
:103FA00003010000140349006400650061006C0017
:103FB0007300650065000000014880470148004724
:103FC000FD390008C93F0008C046C046C046C0468B
:103FD000FFF7B0FF04030904FFF7FEBFFFF7FEBFC2
:103FE000FFF7FEBFFFF7FEBFFFF7FEBFFFF7FEBF05
:103FF000FFF7FEBFFFF7FEBFFFF7FEBFFFF7FEBFF5
:10400000FFF7FEBFFFF7FEBFFFF7FEBFFFF7FEBFE4
:10401000FFF7FEBFFFF7FEBFFFF7FEBFFFF7FEBFD4
:10402000FFF7FEBFFFF7FEBFFFF7FEBFFFF7FEBFC4
:10403000FFF7FEBFFFF7FEBFFFF7FEBFFFF7FEBFB4
:10404000FFF7FEBFFFF7FEBFFFF7FEBFFFF7FEBFA4
:10405000FFF7FEBFFFF7FEBFFFF7FEBFFFF7FEBF94
:10406000FFF7FEBFFFF7FEBFFFF7FEBFFFF7FEBF84
:10407000FFF7FEBF616161626262636364646465ED
:104080006565666666303030313131323232333315
:1040900033343434616161626262636364646465B1
:1040A00065656666663030303131313232323333F5
:1040B000333434341D3200084D3200080133000817
:1040C00003330008053300087F330008F533000888
:1040D0009F330008AB330008B7330008000000002E
:1040E00040000000D43F000804000000A43F000886
:1040F00014000000783F0008180000009000002025
:104100001A0000001A034D0031003000300030006A
:1041100056003000310000000000000000000000E8
:10412000452F0008613E0008452F0008452F000874
:10413000452F0008452F0008452F0008213E0008A4
:10414000452F0008452F0008452F0008452F00087F
:10415000452F0008452F000800000000010203045D
:104160000102030406070809903F0008120000003E
:10417000983E000829000000EC3E000821000000E5
:10418000AA3E0008090000000204060800A24A0432
:08419000030100000100000022
:0400000508003FC9E7
:00000001FF
