:020000040800F2
:10000000400900208D200008991F0008AF1F00083C
:10001000B11F0008B31F0008B51F00080000000052
:10002000000000000000000000000000B71F0008F2
:10003000B91F000800000000BB1F0008BD1F00081A
:10004000AD200008B1200008B5200008B920000844
:10005000BD200008C1200008C5200008C9200008F4
:10006000CD200008D1200008D5200008D9200008A4
:10007000DD200008E1200008E5200008E920000854
:10008000ED200008F1200008F5200008F920000804
:100090009B1F0008FD200008012100080521000821
:1000A000092100080D210008112100081521000870
:1000B000AD1F0008192100081D210008212100089A
:1000C00025210008292100082D21000831210008E0
:1000D00035210008392100083D2100084121000890
:1000E00045210008492100084D21000880B580B253
:1000F000002806D10120DFF8BC1B09680882002017
:1001000008E0DFF8640B006800688047DFF8A40BA4
:1001100000680A3002BD80B5DFF89C0B4078DFF83C
:10012000941B0968C97888421AD3DFF8880B0068E5
:100130008078002814D1DFF87C0B006880880028C4
:100140000ED1DFF8700B0068C078DFF8681B096813
:100150008872DFF8140B006840688047002000E0D8
:10016000022002BD80B580B2002806D10120DFF850
:10017000441B09680882002008E0DFF8EC0A0068E8
:1001800080688047DFF82C0B00680C3002BD80B51A
:10019000DFF8200B0068C178DFF8180B00684079A1
:1001A000DFF8182B126892699047DFF8081B09687E
:1001B000897A00292AD0C0B200280BD1DFF8F41ABE
:1001C00009680979002905D1DFF8E81A09688978F2
:1001D000002901D002201AE0C0B2002816D1DFF8B1
:1001E000880A0068C0688047DFF8C80A006840795C
:1001F000DFF8C01A0968C872DFF8B80A0068C0786A
:10020000DFF8B01A09680873002000E0022002BD80
:1002100080B580B2002806D10220DFF8981A09685C
:100220000882002032E00020DFF8941A0880DFF80E
:10023000840A006800787F21084231D1DFF8740A0F
:100240000068407A810608D5DFF8741A097851F001
:100250000201DFF86C2A117007E0DFF8641A0978F0
:1002600011F0FD01DFF8582A117040060FD5DFF8B4
:10027000500A007850F00100DFF8441A0870DFF8E7
:10028000E809006800698047DFF8340A02BDDFF83A
:10029000300A007810F0FE00DFF8241A0870EEE74C
:1002A000DFF8100A0068007810F07F00012802D102
:1002B000DFF80C0AEAE7DFF8FC090068007810F0C4
:1002C0007F0002282CD1DFF8EC090068417911F099
:1002D0000F00090611D5C0B2DFF8E81951F8200067
:1002E00010F030001028CAD1DFF8D409007850F09F
:1002F0000100DFF8CC190870C1E7C0B2DFF8C419FB
:1003000051F8200010F44050B0F5805FB7D1DFF80D
:10031000B009007850F00100DFF8A4190870AEE7CA
:100320000020B3E710B5DFF88C090068007810F002
:100330007F0000280BD1DFF87C090068407A10F0BC
:10034000DF00DFF8701909684872002096E0022883
:1003500040F09380DFF85C0900684088002805D1F0
:10036000DFF8500900680079002801D0022085E0FC
:10037000DFF84409DFF83C190968497931F0800356
:100380001C00DFF8302912685279120606D5DFF812
:10039000342952F8242012F0300205E0DFF8242935
:1003A00052F8242012F440520078834207D2002AE7
:1003B00005D0DFF800090068807A002801D102200A
:1003C0005CE0080611D5DFF8FC0850F8240010F0B6
:1003D000300010284AD12000C0B200F033FD302197
:1003E0002000C0B200F0B5FC40E0DFF8D80850F8BB
:1003F000240010F44050B0F5805F37D1002C1DD19F
:10040000DFF8C40890F82C1089B22000C0B200F0C8
:1004100079FDDFF8B00850F824004BF68F710840E2
:1004200090F4805090F4005040F4004050F0800070
:1004300080B2DFF8901841F8240017E02000C0B225
:1004400000F0E7FCDFF87C0850F824004BF68F71D1
:10045000084090F4805090F4005040F4004050F078
:10046000800080B2DFF85C1841F82400DFF8F8075C
:10047000006840698047002000E0022010BD80B580
:10048000DFF830080068417931F08000DFF8242877
:1004900012685279120606D5DFF8282852F8202073
:1004A00012F0300205E0DFF81C2852F8202012F488
:1004B0004052DFF804381B7898420DD2DFF8F43749
:1004C0001B685B88002B07D1002A05D0DFF8E427E2
:1004D0001268927A002A01D102202CE0090612D576
:1004E000DFF8E01751F8201048F6BF72114091F084
:1004F000100141F4004151F0800189B2DFF8C427B6
:1005000042F8201011E0DFF8BC1751F820104BF62C
:100510008F72114091F4805141F4004151F08001FB
:1005200089B2DFF8A02742F82010DFF83C07006806
:1005300080698047002002BD80B5DFF87807006839
:10054000407A50F02000DFF86C1709684872DFF835
:1005500018070068C0698047002002BDDFF85427F3
:100560001268528A80B2002807D18888801ADFF882
:10057000441709680882002001E0086810187047D5
:1005800070B5DFF83007006810F110042088A1680A
:1005900000291AD0002818D0A588A84200D205004A
:1005A000280080B2A168884706002088401B208070
:1005B000608828186080002000F08AFC2A0092B22F
:1005C000010089B2300000F0EEFC208800280CD039
:1005D0004FF44050DFF8F41608800021002000F0AE
:1005E00084FC3020DFF8E81608802088A188884243
:1005F00005D30320DFF8BC16096808721DE02088C7
:10060000002805D00520DFF8AC160968087214E050
:100610002088002811D10620DFF898160968087292
:100620000020DFF8B016096889B2DFF8AC2642F87E
:1006300011003020DFF89816088070BDF8B5DFF89B
:100640007406006810F110052888DFF8681609683C
:100650000C7A00281FD1042C1DD1DFF88006007809
:10066000012812D10020DFF86C16096889B2DFF882
:10067000682642F811003020DFF854160880042460
:100680000020DFF85816087004E007241020DFF877
:10069000401608802BE0AE88864201D3042400E097
:1006A0000224B04200D20600300080B2A968884718
:1006B0000700002000F0FFFB320092B2010089B277
:1006C000380000F057FC310089B2002000F00DFC2A
:1006D0002888801B28806888301868803020DFF8E0
:1006E000F01508804FF44050DFF8E0150880DFF87F
:1006F000C40500680472F1BD10B50220DFF8B4151E
:1007000009684C78DFF8AC15096809787F22114236
:100710004ED1092C02D1FFF7FEFC69E0052C1BD15C
:10072000DFF890050068C078802811DADFF88405CA
:100730000068807800280BD1DFF878050068808891
:10074000002805D1DFF86C050068807A002801D008
:1007500008206FE000204BE0032C10D1DFF8540597
:100760000068C078012808D1DFF848050068808853
:10077000002802D1FFF7E0FE3AE0022038E0012C29
:1007800036D1DFF830050068C07801280ED1DFF8D7
:10079000240500688088002808D1DFF81805006863
:1007A000407A800602D5FFF7BDFD21E002201FE060
:1007B000DFF800150968097811F07F01012904D1DB
:1007C0000B2C15D1FFF7E3FC12E0DFF8E814096801
:1007D000097811F07F01022909D1012C02D1FFF71C
:1007E000A1FD05E0032C03D1FFF749FE00E0022044
:1007F000C0B200280BD02000C0B2DFF8C0140968D6
:1008000049698847C0B2032801D1092012E0C0B26B
:10081000002801D008200DE006200021DFF8B424D4
:10082000126892B2DFF8B03443F812103021DFF8CA
:10083000A0241180DFF87C140968087210BD38B557
:10084000DFF870040068407800240025062824D1D1
:10085000DFF86004006800787F21084240F0C6801D
:10086000DFF8500400688078C0B2012804D1DFF8B6
:100870004C040068C469B9E0C0B2022804D1DFF8B2
:100880003C040068046AB1E0C0B2032840F0AE80C6
:10089000DFF828040068446AA8E0002871D1DFF876
:1008A00014140968498800296BD1DFF80814096815
:1008B000C988022965D1DFF8FC1309680979002984
:1008C0005FD1DFF8F003006800787F21084208D18B
:1008D000DFF8E00300688088002802D1DFF80044D8
:1008E00084E0DFF8D0030068007810F07F00012872
:1008F00014D10021DFF8BC0300684079DFF8BC2385
:10090000126892699047002870D1DFF8A803006848
:10091000807A00286AD0DFF8C84367E0DFF89403E4
:100920000068007810F07F0002285FD1DFF88403B0
:100930000068407910F00F00DFF8781309684979F2
:1009400011F07001DFF86C2312685279120606D597
:10095000DFF8702352F8202012F0300205E0DFF8B3
:10096000642352F8202012F44052DFF84C331B78F5
:1009700098423BD2002939D1002A37D0DFF86043B2
:1009800034E0082809D1DFF82C03006800787F21C3
:1009900008422BD1DFF84C4328E00A2826D1DFF8A3
:1009A00014030068007810F07F0001281ED1C148B0
:1009B0000068807A002819D0BE4800684088002866
:1009C00014D1BC480068007900280FD1B9480068EC
:1009D000C08801280AD10021B64800684079B74A8A
:1009E000126892699047002800D1BF4C200000286F
:1009F00014D0B04800684582AE4800688461002089
:100A0000A0470020AB490968098A4FF6FF7291425E
:100A100013D10920A7490968087267E0A548006852
:100A20004078A649096809698847C0B20328E9D116
:100A30000920A0490968087258E0C0B2022804D011
:100A40009C480068008A002804D108209949096858
:100A500008724BE097480068007800063ED595483C
:100A60000068C0880090009892490968098A884205
:100A700004D200988F490968088225E08D480068F3
:100A8000008A8C490968C98888421DD28948006853
:100A9000008A8A49096891F82C1089B2884203D2E9
:100AA00000208E4908700FE082480068008A834960
:100AB000096891F82C1090FBF1F201FB120000285C
:100AC00002D10120854908707C48006890F82C000C
:100AD000784909688882FFF7B1FD07E0032075496E
:100AE000096808724FF440507849088031BD38B524
:100AF00001247848006880B27C4931F81000400039
:100B000000F1804515F5C0456A480068007A09285B
:100B100026D028786749096808706D1C28786549CF
:100B2000096848706D1CA4B215EB44052800851CAB
:100B3000008800F017FA5F4909684880A4B215EBF5
:100B400044052800851C008800F00CFA5949096802
:100B50008880A4B215EB4405288856490968C880E6
:100B6000012054490968087252480068C08800286A
:100B700002D1FFF7C1FD01E0FFF761FE00F055F87B
:100B800032BD80B54B480068007A022801D00428A5
:100B900005D1FFF753FD47480068007A1CE006289E
:100BA00019D144480068407805280ED141480068B2
:100BB00000787F21084208D13E480068C07800F0E4
:100BC00055F829480068006A80473C4800688068FA
:100BD0008047082000E0082036490968087200F0C4
:100BE00024F802BD80B533480068007A022801D09D
:100BF000042801D1082012E0032801D0052805D1DE
:100C0000FFF7BEFC2B480068007A08E0072805D1F2
:100C10002A480068C0688047082000E0082025496D
:100C20000968087200F001F802BD80B5264890F806
:100C30002C1089B2002000F065F91E480068007A87
:100C4000082806D14FF48050204908801020204900
:100C5000088018480068007A092801D1012000E0C6
:100C60000020C0B202BD00001C01002030B41249B7
:100C70000A78002114E00B00DBB2124C54F8233048
:100C800048F68F7423400C00E4B2234343F400433E
:100C900053F080030C00E4B20A4D45F82430491C9F
:100CA0009142E8D3C0B250F080001149086030BCD6
:100CB0007047000014010020EC0000201801002003
:100CC00010010020005C00400000002030010020E6
:100CD00032010020505C00400460004037010020D9
:100CE00011020008ED0000086501000808600040DE
:100CF0004C5C0040704710B450F8041B81B102688E
:100D00001218001D50F8043BDC0744BFA9F1010490
:100D1000E31852F8044B43F8044B091FF9D1EBE7F1
:100D200010BC70474FF6F8710840DFF820120860D9
:100D30007047C0B2DFF8182252F8202048F68F130F
:100D40001A40114389B2C0B2DFF8042242F82010E1
:100D50007047C0B2DFF8F82152F8202048F6BF7380
:100D60001A40CB0601D592F01002890601D592F007
:100D7000200242F4004151F0800189B2C0B2DFF894
:100D8000D02142F820107047C0B2DFF8C42152F8D9
:100D900020204BF68F731A40CB0401D592F4805279
:100DA000890401D592F4005242F4004151F08001CF
:100DB00089B2C0B2DFF8982142F820107047C0B263
:100DC000DFF88C1151F820104BF68F72114091F41E
:100DD000805191F4005141F4004151F0800189B2F9
:100DE000C0B2DFF86C2142F820107047C0B2DFF8C3
:100DF000601151F8201048F68F62114041F4004113
:100E000051F0800189B2C0B2DFF8442142F82010CD
:100E10007047C0B2DFF8381151F82010490410D5DE
:100E2000C0B2DFF82C1151F8201048F68F72114033
:100E300041F4404151F08001C0B2DFF8142142F882
:100E400020107047C0B2DFF8081151F82010490691
:100E500010D5C0B2DFF8F81051F8201048F68F72A4
:100E6000114041F4004151F0C001C0B2DFF8E02070
:100E700042F820107047DFF8D420126892B2C0B256
:100E800012EBC000DFF8CC2089B2490889B24900D2
:100E900042F810107047DFF8B420126892B2C0B266
:100EA00012EBC000DFF8B02089B2490889B24900CE
:100EB00042F810107047DFF89410096889B2C0B288
:100EC00011EBC000DFF88C1051F8100080B27047B1
:100ED000DFF87810096889B2C0B211EBC000DFF802
:100EE000781051F8100080B27047DFF86020126867
:100EF00092B2C0B212EBC000DFF8602089B242F8B3
:100F000010107047DFF84420126892B2C0B212EBA2
:100F1000C000DFF84C2012EB400089B23F290BDB08
:100F200089B24A091F23194200D1521E92B291027E
:100F300051F40041016007E089B24A08C90700D5B1
:100F4000521C92B29102016070470000505C004058
:100F5000005C004000600040086000400460004009
:100F60000C600040010080B2C9B2090251EA1020B1
:100F700080B2704710B492B2521C521089B249002C
:100F800001F1804313F5C04309E00178401C047867
:100F900051EA042119809B1C9B1C401C521E002AF4
:100FA000F3D110BC704792B2521C521089B2490062
:100FB00001F1804111F5C04105E00B680380091D76
:100FC000401C401C521E002AF7D1704780B500F02B
:100FD000BFF9002089490968887200F0E5F900200E
:100FE000874908604FF43F4086490880854800885B
:100FF0008549086000208549086001BD80B5002052
:101000007E490968887200207C490968C872804856
:10101000C0797A49096848720020FFF783FE4FF4CF
:1010200000710020FFF785FE10210020FFF791FEE0
:1010300018210020FFF72FFF58210020FFF71BFF8A
:101040000020FFF7D3FE734890F82C1089B20020DF
:10105000FFF758FF0020FFF7B2FE4FF4C0610120F8
:10106000FFF767FE98210120FFF715FF40210120BF
:10107000FFF748FF4FF440510120FFF785FE4FF482
:10108000C0610220FFF755FE4FF48C710220FFF77C
:10109000F2FE40210220FFF728FF20210220FFF767
:1010A00058FE0020FFF7E2FD01205849086001BD0D
:1010B00052480068807A002802D005205349086011
:1010C000704704205149086070477047704780B5E9
:1010D0000021C0B206281BD1484A1268127812F0CB
:1010E0007F02012A14D1454A12685279002A0FD191
:1010F000424800688078222802D10FF2A90113E04B
:101100003E480068807821280ED10FF2A5010BE03F
:101110003A4A1268127812F07F02212A04D1C0B232
:10112000032801D10FF2BD010800002801D10220DF
:1011300009E03248006881610020304A126850821C
:1011400000208847002002BD80B52C490968097835
:1011500011F07F01212905D1C0B20B2802D100F086
:1011600039F800E0022002BD80B52B4980B2FFF7BC
:10117000F5F902BD80B5294980B2FFF7EFF902BD4C
:1011800080B51E490968C978C9B2052901DB00206C
:1011900006E0C9B2224A12EBC10180B2FFF7DEF9C4
:1011A00002BD000080B51F4980B2FFF7D7F902BD2C
:1011B00080B51D4980B2FFF7D1F902BDC9B200293F
:1011C00001D0022005E0C0B2002801D0022000E0DA
:1011D0000020704709480068C078C0B21349086011
:1011E0000020704780B2002805D10120034909681A
:1011F0000882002000E00D48704700001401002024
:10120000445C00402E010020405C0040240100208E
:10121000441F000800000020C8000020D00000206B
:1012200054000020D8000020E00000202001002011
:1012300080B500215FF0006000F089F900F04BF804
:1012400001BD80B5012000F05BFA01215FF40000D0
:1012500000F069FA01BD03204C49086070474C4812
:10126000807A002803D005204849086002E0012068
:1012700046490860704780B514208DF800000120B1
:101280008DF8010000208DF8020001208DF8030088
:1012900000A800F02BF91C208DF8000002208DF82A
:1012A000010000208DF8020001208DF8030000A845
:1012B00000F01CF901BD80B5C0B2002805D04FF484
:1012C0008071344800F0DFFA04E04FF48071314857
:1012D00000F0D6FA01BD80B54FF4C050ADF8000063
:1012E00010208DF8030003208DF8020000A92A4881
:1012F00000F062FA4FF40061274800F0C4FA4FF49E
:101300008051254800F0BFFA4FF4C050ADF80000FE
:1013100004208DF8030003208DF8020000A91E4868
:1013200000F04AFA0121082000F0EDF92020ADF884
:10133000000010208DF8030003208DF8020000A9A2
:10134000144800F039FA2021124800F099FA01BD42
:101350001248006812490968002815D0114A907097
:10136000020A104B1A71020C0E4B9A71000E0D4AB4
:1013700010720C488172080A0A4A1073080C094A54
:101380009073080E0749087470470000240100207C
:10139000F4000020000C014000080140E8F7FF1FA6
:1013A000ECF7FF1F7400002080B50120FFF783FFDA
:1013B000012080B249490860002049490880484816
:1013C0000088464908600020464908604FF4E05014
:1013D000434908804248008840490860002002BD17
:1013E00080B53E48006850F0080080B23B49086074
:1013F0003A48006850F0040080B238490860FFF7AE
:101400002AFF01BD80B5354800684FF6FB710840E2
:1014100080B232490860FFF722FF4FF43F402F4966
:10142000086001BD80B5C0B2072801D02E49087000
:101430002D480078002808D0022812D00BD30428A9
:1014400023D015D305282ED042E0FFF7DBFF06207E
:10145000254908703FE0FFF7D5FF042022490870B6
:1014600039E002202049487003201F49087032E00B
:101470001D484078401E1C4948701B484078002891
:1014800002D104201849087025E01448006850F083
:10149000100080B2114908600520134908700A2025
:1014A0001149487017E010484078401E0E494870B6
:1014B0000D48407800280AD1084800684FF6EF71BF
:1014C000084080B20549086006200749087002E01C
:1014D00006200549087001BD00000000405C004086
:1014E0002E010020445C00402801002010B400219F
:1014F00000220F23C478002C1DD02049096811F464
:10150000E061D1F5E061090AD1F10402CB404178F4
:10151000914082781A40114309010278184BD15446
:101520000121027812F01F02914000784011154A03
:1015300042F8201009E00121027812F01F029140C8
:1015400000784011104A42F8201010BC70470F4A32
:10155000114008430E4908607047042806D10D4821
:10156000006850F004000B49086005E00948006875
:1015700030F0040007490860704700000CED00E0FF
:1015800000E400E000E100E080E100E080FFFF1FF8
:1015900008ED00E010E000E0DFF8F001006850F036
:1015A0000100DFF8E8110860DFF8E4010068DFF807
:1015B000E4110840DFF8D8110860DFF8D0010068B6
:1015C000DFF8D4110840DFF8C4110860DFF8BC016F
:1015D000006830F48020DFF8B4110860DFF8B00153
:1015E000006830F4FE00DFF8A81108605FF41F0007
:1015F000DFF8A81108607047DFF89011096831F42E
:101600008031DFF888211160DFF88011096831F43A
:101610008021DFF878211160B0F5803F03D0B0F56C
:10162000802F09D011E0DFF86401006850F48030A9
:10163000DFF85811086008E0DFF85001006850F446
:10164000A020DFF848110860FFE7704780B5002050
:10165000009000200021312000F075F80100009872
:10166000401C00900098B0F5A06F02D0C9B20029CC
:10167000F1D0312000F067F8002801D0012000E00F
:101680000020C0B202BD0022414B1B681A0032F498
:101690007C12084302433E4802607047C0B2404992
:1016A0000860704700213A4A1268110089088900D1
:1016B00001433748016070473548006810F00C005E
:1016C00070470021324A1268110031F0F0010143E5
:1016D0002F480160704700212D4A1268110031F433
:1016E000E06101432A48016070470021284A1268DE
:1016F000110031F4605151EAC00125480160704782
:10170000284908607047C9B2002905D027490968EF
:1017100008432649086005E02449096831EA0000C9
:10172000224908607047C9B2002905D020490968DC
:1017300008431F49086005E01D49096831EA0000B7
:101740001B490860704710B4002200230021C0B27A
:101750004409E4B22200012A02D10C490B6806E0D8
:10176000022A02D110490B6801E012490B68C0B28D
:1017700010F01F0233FA02F0C00701D5012100E08A
:1017800000210800C0B210BC7047000000100240E9
:10179000041002400000FFF8FFFFF6FE08100240B0
:1017A00060004242D800424220100240181002401D
:1017B0001C10024024100240F0B400220026002435
:1017C00000250023002791F803C01CF00F0C62468F
:1017D00091F803C05FEACC6C01D58B781A430B7883
:1017E0001B0621D00368002406E0CD78482D02D1E5
:1017F0000125A5400561641C082C14D20125A540D3
:101800000E882E40AE42F6D1A5000F2616FA05F737
:10181000BB4312FA05F52B43CD78282DE5D10125E0
:10182000A5404561E7E703600B88FF2B26DD436891
:10183000002420E0012514F10806B5400E882E4052
:10184000AE4217D1A5000F2616FA05F7BB4312FAD0
:1018500005F52B43CD78282D04D1012514F1080678
:10186000B5404561CD78482D04D1012514F1080615
:10187000B5400561641C082CDCD34360F0BC7047A4
:1018800089B20161704789B24161704780B500201B
:10189000ADF8000039E086480078864951F820000C
:1018A000ADF80000BDF80000000414D580480078B1
:1018B000804951F8200040F68F7108407C49097832
:1018C0007C4A42F821007A4800787B4911EB80007D
:1018D00050F8040C8047BDF80000000615D5744888
:1018E0000078744951F8200080B248F60F71084022
:1018F0006F4909786F4A42F821006D4800786F49B6
:1019000011EB800050F8040C80476D4800686D4969
:101910000880000440F1CA806A48008810F00F0077
:1019200063490870624800780028B4D161480068B3
:10193000654908806448008810F0300063490880D9
:101940006148008810F440505F4908805948006899
:1019500080B24BF6BF71084090F4005090F0200028
:1019600080B240F4004050F0800052490860554871
:101970000088C0062FD44F48006880B248F60F7127
:1019800008404C490860FFF7FCF84A48006880B2FC
:101990004BF6BF7108404C490988C90401D590F441
:1019A000805049490988890401D590F4005047497D
:1019B0000988C90601D590F01000444909888906B4
:1019C00001D590F0200080B240F4004050F080003B
:1019D000384908606AE037480068ADF80000BDF893
:1019E000000000052ED53348006840F68F7108408E
:1019F00030490860FFF77BF82E48006880B24BF64C
:101A0000BF71084030490988C90401D590F480505D
:101A10002D490988890401D590F400502B49098883
:101A2000C90601D590F0100028490988890601D51A
:101A300090F0200080B240F4004050F080001D493A
:101A4000086033E0BDF8000000047FF55EAF194880
:101A5000006840F68F71084016490860FFF7C2F829
:101A60001448006880B24BF6BF71084016490988D7
:101A7000C90401D590F4805013490988890401D51F
:101A800090F4005011490988C90601D590F0100062
:101A90000E490988890601D590F0200080B240F4F3
:101AA000004050F0800003490860FFE701BD0000DE
:101AB00039010020005C0040AC00002090000020B4
:101AC000445C00403401002030010020320100203D
:101AD00080B54F48006850F001004D4908604D48FE
:101AE00000684D4908404B490860494800684B4927
:101AF0000840474908604648006830F4802044495F
:101B000008604448006830F4FE00424908605FF411
:101B10001F004349086000F005F85FF0006041498C
:101B2000086001BD80B500F001F801BD82B0002061
:101B30000190002000903648006850F4803034490D
:101B400008603348006810F4003000900198401C91
:101B500001900098002803D10198B0F5A06FF0D152
:101B60002B480068800302D50120009001E000208E
:101B700000900098012847D12B48006850F01000D1
:101B800029490860284800688008800026490860C4
:101B90002548006850F00200234908601D4800688D
:101BA0001C4908601B4800681A4908601948006809
:101BB00050F48060174908601648006830F47C10C3
:101BC000144908601348006850F4E810114908608F
:101BD0000F48006850F080700D4908600C4800689C
:101BE0008001FBD50B480068800880000949086027
:101BF0000848006850F0020006490860054800687F
:101C000010F00C000828F9D102B070470000000065
:101C100000100240041002400000FFF8FFFFF6FE33
:101C20000810024008ED00E00020024080B5344872
:101C300000683449088033480088334909880840DF
:101C4000400506D54FF6FF302D4908602F48406803
:101C500080472C4800882C4909880840800403D517
:101C60004DF6FF70264908602648008826490988F5
:101C70000840C00406D54EF6FF70214908600020D8
:101C8000FFF7D0FB1F4800881F490988084000055E
:101C90000DD51F480078002802D0FFF7A1FB02E015
:101CA0000220FFF7BFFB4FF2FF701549086015488F
:101CB0000088154909880840800508D54FF6FF506F
:101CC0000F49086013480078401C124908700D48FD
:101CD00000880D4909880840C00506D54FF6FF6009
:101CE000074908600720FFF79DFB06480088064962
:101CF00009880840000401D5FFF7C8FD01BD00BFF9
:101D0000445C0040340100202E010020000000202F
:101D1000F10000203A01002080B5FFF73DFC5FF4A0
:101D20008030FFF769FCFFF791FCC0B20128FAD1BF
:101D3000C0B2012825D10020FFF7C3FC0020FFF727
:101D4000D4FC4FF48060FFF7C6FC022000F042F89C
:101D5000102000F04BF85FF4E0115FF44030FFF723
:101D600092FC0120FFF79AFC3920FFF7ECFC0028D9
:101D7000FAD00220FFF796FCFFF79EFC0828FBD163
:101D800016E00020FFF738FC5FF4E0110020FFF7B9
:101D90007AFC0120FFF782FC3920FFF7D4FC0028F1
:101DA000FAD00220FFF77EFCFFF786FC0828FBD163
:101DB00001BD50F8041B61B150F8042BD30744BF98
:101DC000A9F101039A18002342F8043B091FFAD134
:101DD000EFE770470021DFF834201268110011F09E
:101DE00038010143DFF8240001607047DFF81C1060
:101DF000096831F01001DFF814201160DFF80C10D1
:101E000009680843DFF804100860704700200240AA
:101E10000B480078002801D1012000E0002008498B
:101E2000087007480078002803D020200549086082
:101E300002E020200449086001200449087070472E
:101E4000F0000020100C0140140C0140380100206B
:101E50007047000080B50948094908600220084918
:101E60000968087207480849086008480849086076
:101E7000054800680068804701BD00BFF4000020ED
:101E80001401002000000020180100203000002074
:101E90001C01002000B5C1B000A84FF4807100F013
:101EA00017F800215FF00060FFF751FBFFF734FFE8
:101EB00000F012F8FFF7BCF9FFF7DDF9FFF7C1F901
:101EC000FFF7C8FF002001490870FEE73801002035
:101ED000002200F01DB8000080B57FF00400FFF77D
:101EE0003CFB074800680749B0FBF1F00649087061
:101EF000054800784FF47A7148430449088001BDD1
:101F0000E800002000127A00360100202C01002099
:101F100000B500BF130096469446103928BFA0E8CC
:101F20000C50FAD85FEA417C28BF0CC048BF40F88B
:101F3000042BC90728BF20F8022B48BF00F8012B4B
:101F400000BD0000090229000101008032090400DF
:101F500000020300000009211001000122210007F6
:101F60000582034000200705010340001000000027
:101F700010B5074979441831064C7C44163404E006
:101F80000A68081D511888470146A142F8D110BDC2
:101F90005400000074000000704780B5FFF746FE53
:101FA00020200149086001BD140C01407047FEE784
:101FB000FEE7FEE7FEE77047704770477047000096
:101FC000058C0901A101090315002600FF7508957C
:101FD000408102090415002600FF75089540910212
:101FE000C0000000CFFDFFFF48000000F40000200B
:101FF0000000000003EDFFFFF400000054010000AA
:10200000000000200000000000F00BF8002801D0C4
:10201000FFF7AEFF0020C046C046FFF73BFF00F0D1
:1020200002F80120704700F001B80000074638466A
:1020300000F002F8FBE7000080B5C046C046024A47
:1020400011001820ABBEFBE7260002001803490070
:102050004400450041004C0045004E0053005F0025
:102060006B0032001201000200000040830454574C
:10207000000201020301000014034900640065002E
:1020800061006C0073006500650000000148804736
:1020900001480047D11A00089D200008C046C046EC
:1020A000C046C046FFF7B0FF04030904FFF7FEBFB8
:1020B000FFF7FEBFFFF7FEBFFFF7FEBFFFF7FEBF54
:1020C000FFF7FEBFFFF7FEBFFFF7FEBFFFF7FEBF44
:1020D000FFF7FEBFFFF7FEBFFFF7FEBFFFF7FEBF34
:1020E000FFF7FEBFFFF7FEBFFFF7FEBFFFF7FEBF24
:1020F000FFF7FEBFFFF7FEBFFFF7FEBFFFF7FEBF14
:10210000FFF7FEBFFFF7FEBFFFF7FEBFFFF7FEBF03
:10211000FFF7FEBFFFF7FEBFFFF7FEBFFFF7FEBFF3
:10212000FFF7FEBFFFF7FEBFFFF7FEBFFFF7FEBFE3
:10213000FFF7FEBFFFF7FEBFFFF7FEBFFFF7FEBFD3
:10214000FFF7FEBFFFF7FEBFFFF7FEBFFFF7FEBFC3
:10215000CD0F0008FD0F0008CB100008CD100008BF
:10216000CF10000849110008BD11000869110008CE
:1021700075110008811100080000000040000000F7
:10218000F50C0008B1100008F50C0008F50C00086B
:10219000F50C0008F50C0008F50C0008F50C00081B
:1021A000C3100008A82000080400000078200008E0
:1021B000140000004C2000081800000074000020EB
:1021C0001A0000001A034D003100300030003000CA
:1021D0005600300031000000000000000000000048
:1021E000511E0008F50C0008F50C0008F50C00085D
:1021F000F50C0008F50C0008F50C0008111E00088D
:10220000F50C0008F50C0008F50C0008F50C0008AA
:10221000F50C0008F50C000864200008120000000E
:10222000441F000829000000C01F00082100000012
:10223000561F00080900000000A24A040301000024
:042240000101000098
:040000050800209D32
:00000001FF
