:020000040800F2
:10000000C8090020BD460008554100087742000895
:10001000794200087B4200087D4200080000000091
:100020000000000000000000000000007F42000807
:100030008142000800000000834200088542000859
:10004000ED460008F1460008F5460008F9460008AC
:10005000FD460008014700085F410008E141000833
:1000600005470008094700080D4700081147000828
:1000700015470008194700081D47000821470008D8
:1000800025470008294700082D4700083147000888
:100090005741000835470008394700083D47000828
:1000A0004147000845470008494700084D470008F8
:1000B0007542000851470008554700085947000895
:1000C0005D47000861470008654700086947000868
:1000D0006D47000871470008754700087947000818
:1000E0007D470008814700088547000810B582B0A9
:1000F00001211C2001F01AFF0220ADF800001020A1
:100100008DF8030003208DF8020000A9494801F092
:100110006BFFC820ADF8000010208DF8030003200D
:100120008DF8020000A9444801F05EFF4FF4C04082
:10013000ADF8000010208DF8030003208DF80200B8
:1001400000A93E4801F050FF01F0F6FF02213948B6
:1001500001F0BCFF022002F053F90221354801F002
:10016000B2FF1E2002F04CF90821334801F0AEFF27
:10017000032002F045F900240EE008212E4801F08A
:10018000A2FF012002F01EF908212B4801F09EFF7A
:10019000012002F017F9641CE4B2202CEDDB0821E9
:1001A000254801F090FF282002F02AF9402122483A
:1001B00001F089FF042002F023F980211E4801F09C
:1001C00082FF0F2002F01CF90F2002F019F9102114
:1001D000012001F013FD1221002001F00FFD0F207E
:1001E00002F00EF94FF48041144801F06CFF4FF417
:1001F0000051124801F067FF012002F001F94FF4AD
:1002000080410E4801F062FF4FF400510B4801F0AD
:100210005DFF012002F0F4F84FF48041074801F03F
:1002200052FF4FF40051054801F04DFF00F008F86F
:1002300013BD0000000C0140000801400010014007
:1002400038B5002400250223042204211E2001F0D9
:100250001EFD022343F6017202211E2001F017FD4C
:100260000223002202211E2001F011FD0223082298
:1002700006211E2001F00BFD042301224FF484719E
:100280001E2001F004FD042301224FF486711E207C
:1002900001F0FDFC042301224FF428711E2001F01F
:1002A000F6FC042349F2BD024FF42B711E2001F02D
:1002B000EEFC012002F0C3F8042303224FF428715E
:1002C0001E2001F0E4FC042314224FF48C711E2044
:1002D00001F0DDFC042341F270724FF490711E2096
:1002E00001F0D5FC042300224FF492711E2001F08E
:1002F000CEFC042340F201124FF494711E2001F051
:10030000C6FC04235FF480324FF498711E2001F084
:10031000BEFC04234FF4A0424FF49A711E2001F05A
:10032000B6FC04235FF480324FF49C711E2001F070
:10033000AEFC04235FF480324FF49E711E2001F066
:10034000A6FC04235FF480324FF4A0711E2001F05C
:100350009EFC04235FF480324FF4A2711E2001F052
:1003600096FC04234FF480524FF4A4711E2001F038
:100370008EFC04235FF480324FF4A6711E2001F03E
:1003800086FC04234FF4B0724FF4A8711E2001F0D4
:100390007EFC042301224FF4AA711E2001F077FC99
:1003A0000423C8224FF4AC711E2001F070FC04231A
:1003B0002A224FF4B4711E2001F069FC042340F29C
:1003C00077624FF4B8711E2001F061FC0423812292
:1003D0004FF4BE711E2001F05AFC042301224FF499
:1003E000C6711E2001F053FC04234FF482724FF4B7
:1003F000C8711E2001F04BFC042300224FF4D2717F
:100400001E2001F044FC042315224FF4E0711E204D
:1004100001F03DFC042300224FF405711E2001F081
:1004200036FC042380224FF407711E2001F02FFCBC
:10043000042300224FF409711E2001F028FC04233C
:1004400006224FF415711E2001F021FC0423B94A45
:100450004FF416711E2001F01AFC0423B64A4FF423
:1004600017711E2001F013FC0423B44A4FF41871D5
:100470001E2001F00CFC042344F268224FF4197191
:100480001E2001F004FC04230F224FF41A711E20D9
:1004900001F0FDFB0423A84A4FF41B711E2001F05C
:1004A000F6FB042320224FF41C711E2001F0EFFB09
:1004B00004231F224FF41D711E2001F0E8FB0423CA
:1004C0009F4A4FF41E711E2001F0E1FB042302221B
:1004D0004FF41F711E2001F0DAFB042301224FF4B8
:1004E0008E711E2001F0D3FB042301224FF44271D0
:1004F0001E2001F0CCFB042301224FF443711E2087
:1005000001F0C5FB042301224FF494611E2001F089
:10051000BEFB042349F2BD0240F2AC411E2001F0B3
:10052000B6FB012001F08BFF042303224FF49461FA
:100530001E2001F0ACFB042314224FF446711E2050
:1005400001F0A5FB042341F270724FF448711E20A4
:1005500001F09DFB042300224FF449711E2001F09D
:1005600096FB042340F201124FF44A711E2001F061
:100570008EFB04235FF480324FF44C711E2001F097
:1005800086FB04234FF4A0424FF44D711E2001F06E
:100590007EFB04235FF480324FF44E711E2001F085
:1005A00076FB04235FF480324FF44F711E2001F07C
:1005B0006EFB04235FF480324FF450711E2001F073
:1005C00066FB04235FF480324FF451711E2001F06A
:1005D0005EFB04234FF480524FF452711E2001F051
:1005E00056FB04235FF480324FF453711E2001F058
:1005F0004EFB04234FF4B0724FF454711E2001F0EF
:1006000046FB042301224FF455711E2001F03FFBED
:100610000423C8224FF456711E2001F038FB042336
:100620002A224FF45A711E2001F031FB042340F2BC
:1006300077624FF45C711E2001F029FB04238122B4
:100640004FF45F711E2001F022FB042301224FF4BE
:1006500063711E2001F01BFB04234FF482724FF4E0
:1006600064711E2001F013FB042300224FF4697112
:100670001E2001F00CFB042315224FF470711E2084
:1006800001F005FB0423002240F214411E2001F07A
:10069000FEFA0423802240F21C411E2001F0F7FAEA
:1006A0000423002240F224411E2001F0F0FA04232A
:1006B000062240F254411E2001F0E9FA04231D4AAB
:1006C0004FF48B611E2001F0E2FA04231A4A40F233
:1006D0005C411E2001F0DBFA0423184A4FF48C61C0
:1006E0001E2001F0D4FA042344F2682240F264414F
:1006F0001E2001F0CCFA04230F224FF48D611E203E
:1007000001F0C5FA04230C4A40F26C411E2001F0AE
:10071000BEFA042320224FF48E611E2001F0B7FAA6
:1007200004231F2240F274411E2001F0B0FA04237A
:10073000034A07E00402240008000D00060014002C
:10074000050006004FF48F611E2001F0A0FA04237B
:10075000022240F27C411E2001F099FA042301227A
:100760004FF447711E2001F092FA022304224FF445
:10077000A0611E2001F08BFA042316224FF4887129
:100780001E2001F084FA042316224FF444711E2027
:1007900001F07DFA0223152240F204511E2001F0DF
:1007A00076FA0223902240F204511E2001F06FFAE3
:1007B000012001F044FE022348F2390240F20451C4
:1007C0001E2001F064FA0223062240F204511E208A
:1007D00001F05DFA022345F2F05240F204511E206E
:1007E00001F055FA022345F2AA2240F204511E20DC
:1007F00001F04DFA0223082240F204511E2001F0BC
:1008000046FA012001F01BFE0223152240F204519A
:100810001E2001F03CFA022340F2C91240F20451BA
:100820001E2001F034FA012001F009FE02231522F6
:1008300040F204511E2001F02AFA0223902240F2D5
:1008400004511E2001F023FA012001F0F8FD0223DB
:10085000152240F204511E2001F019FA02234FF430
:10086000AC7240F204511E2001F011FA012001F097
:10087000E6FD0223152240F204511E2001F007FA82
:10088000022341F2B40240F204511E2001F0FFF9AC
:10089000012001F0D4FD022348F2390240F2045154
:1008A0001E2001F0F4F90223052240F204511E201B
:1008B00001F0EDF902234AF6FF2240F204511E2016
:1008C00001F0E5F902234AF2555240F204511E208C
:1008D00001F0DDF90223802240F204511E2001F0D4
:1008E000D6F9012001F0ABFD0223152240F204519C
:1008F0001E2001F0CCF9022340F26F1240F20451A5
:100900001E2001F0C4F9012001F099FD02231522F7
:1009100040F204511E2001F0BAF9022341F2F30221
:1009200040F204511E2001F0B2F9012001F087FDD0
:10093000022348F2390240F204511E2001F0A7F9C7
:100940000223052240F204511E2001F0A0F90223E7
:100950004AF6FF2240F204511E2001F098F90223CA
:100960004AF2555240F204511E2001F090F9022340
:10097000002240F204511E2001F089F9012001F00B
:100980005EFD022348F2390240F204511E2001F0BC
:100990007EF90223062240F204511E2001F077F96D
:1009A000022345F2F05240F204511E2001F06FF98B
:1009B000022345F2AA2240F204511E2001F067F9F9
:1009C00002234FF4E16240F204511E2001F05FF96E
:1009D000012001F034FD0223152240F204511E20B3
:1009E00001F055F9022341F2DD0240F204511E20CC
:1009F00001F04DF9012001F022FD0223152240F201
:100A000004511E2001F043F9022340F2EF1240F29C
:100A100004511E2001F03BF9012001F010FD0223DA
:100A2000052240F204511E2001F031F90223112267
:100A300040F204511E2001F02AF9022348F2390243
:100A400040F204511E2001F022F90223062240F256
:100A500004511E2001F01BF9022345F2F05240F22E
:100A600004511E2001F013F9022345F2AA2240F29C
:100A700004511E2001F00BF90223082240F2045118
:100A80001E2001F004F9012001F0D9FC02231522F7
:100A900040F204511E2001F0FAF8022340F2C9127C
:100AA00040F204511E2001F0F2F8012001F0C7FCD1
:100AB0000223152240F204511E2001F0E8F802231F
:100AC000902240F204511E2001F0E1F8012001F0D3
:100AD000B6FC0223152240F204511E2001F0D7F883
:100AE00002234FF4AC7240F204511E2001F0CFF803
:100AF000012001F0A4FC0223052240F204511E2033
:100B000001F0C5F80223292240F204511E2001F011
:100B1000BEF8012001F093FCC82001F090FC0223F4
:100B200000224FF4A0411E2001F0B1F8022348F248
:100B3000E04245F20C011E2001F0A9F80223002238
:100B40004FF4A1411E2001F0A2F80123032248F234
:100B500010411E2001F09BF801233F2248F213416F
:100B60001E2001F094F80123062248F220411E20A5
:100B700001F08DF80123312248F2F0411E2001F0EE
:100B800086F80123012248F2F4411E2001F07FF88B
:100B900002234FF4965248F240511E2001F077F89C
:100BA0000123002248F230611E2001F070F8022378
:100BB00040F2537248F231611E2001F068F80123BF
:100BC000022248F270611E2001F061F802234FF406
:100BD000965248F60C211E2001F059F80123FF22FD
:100BE00048F20B511E2001F052F80123FD2248F279
:100BF0001B511E2001F04BF8022340F6BF72142156
:100C00001E2001F044F8022340F6BF5216211E2098
:100C100001F03DF80123012248F2E0511E2001F0CD
:100C200036F802234FF4807248F2E3511E2001F09F
:100C30002EF8012300224FF40C411E2001F027F86A
:100C40000123FF2248F601411E2001F020F8012374
:100C5000FF2248F602411E2001F019F80123FF226D
:100C600048F603411E2001F012F80123FF2248F646
:100C700004411E2001F00BF80123FF2248F6054134
:100C80001E2001F004F80123FF2248F606411E2031
:100C900000F0FDFF0123002248F607411E2000F06E
:100CA000F6FF0123522248F608411E2000F0EFFF14
:100CB0000123622248F609411E2000F0E8FF0123CB
:100CC000882248F60A411E2000F0E1FF0123882215
:100CD00048F60B411E2000F0DAFF0123002248F6FF
:100CE0000C411E2000F0D3FF0123882248F60D415D
:100CF0001E2000F0CCFF0123882248F60E411E2062
:100D000000F0C5FF0123882248F60F411E2000F0A5
:100D1000BEFF01231C2248F610411E2000F0B7FF41
:100D20000123152248F611411E2000F0B0FF0123D7
:100D3000012248F612411E2000F0A9FF01230322E0
:100D400048F613411E2000F0A2FF0123802248F63E
:100D500014411E2000F09BFF0123002248F615419C
:100D60001E2000F094FF0123002248F616411E20A9
:100D700000F08DFF0123782248F617411E2000F075
:100D800086FF01230A2248F618411E2000F07FFF4B
:100D900001230D2248F619411E2000F078FF01239F
:100DA000C92248F61A411E2000F071FF0123A0223B
:100DB00048F61B411E2000F06AFF0123572248F627
:100DC0001C411E2000F063FF0123472248F61D410D
:100DD0001E2000F05CFF0123982248F61E411E20D1
:100DE00000F055FF0123272248F61F411E2000F086
:100DF0004EFF0123122248F620411E2000F047FF3B
:100E00000123482248F621411E2000F040FF012323
:100E10004C2248F622411E2000F039FF0123002217
:100E200048F623411E2000F032FF0123002248F63D
:100E300024411E2000F02BFF0123002248F625410B
:100E40001E2000F024FF0123012248F626411E2027
:100E500000F01DFF0123012248F627411E2000F06B
:100E600016FF0123012248F628411E2000F00FFF43
:100E70000123012248F629411E2000F008FF01232A
:100E8000012248F62A411E2000F001FF0123012221
:100E900048F62B411E2000F0FAFE0123012248F6FD
:100EA0002C411E2000F0F3FE0123012248F62D41C3
:100EB0001E2000F0ECFE0123012248F62E411E20E8
:100EC00000F0E5FE0123012248F62F411E2000F02C
:100ED000DEFE0123012248F630411E2000F0D7FE3D
:100EE0000123012248F631411E2000F0D0FE0123EB
:100EF000012248F632411E2000F0C9FE01230122E2
:100F000048F633411E2000F0C2FE0123012248F6BC
:100F100034411E2000F0BBFE0123012248F635417A
:100F20001E2000F0B4FE0123022248F636411E20A6
:100F300000F0ADFE01233A2248F637411E2000F0B2
:100F4000A6FE0123802248F638411E2000F09FFEB5
:100F50000123182248F639411E2000F098FE012393
:100F6000712248F63A411E2000F091FE01233822FA
:100F700048F63B411E2000F08AFE01232D2248F650
:100F80003C411E2000F083FE0123402248F63D41F3
:100F90001E2000F07CFE0123582248F63E411E2010
:100FA00000F075FE01232C2248F63F411E2000F080
:100FB0006EFE0123452248F640411E2000F067FEE8
:100FC0000123002248F641411E2000F060FE01236B
:100FD000C42248F642411E2000F059FE01238E2211
:100FE00048F643411E2000F052FE0123212248F61C
:100FF00044411E2000F04BFE0123002248F64541EB
:101000001E2000F044FE0123002248F646411E2027
:1010100000F03DFE01231E2248F647411E2000F04D
:1010200036FE0123022248F648411E2000F02FFE22
:1010300001233A2248F649411E2000F028FE0123F0
:10104000802248F64A411E2000F021FE012318228A
:1010500048F64B411E2000F01AFE0123712248F68B
:101060004C411E2000F013FE0123382248F64D416A
:101070001E2000F00CFE01232D2248F64E411E20BA
:1010800000F005FE0123402248F64F411E2000F0EB
:10109000FEFD0123582248F650411E2000F0F7FDC6
:1010A00001232C2248F651411E2000F0F0FD0123BF
:1010B000452248F652411E2000F0E9FD012300229E
:1010C00048F653411E2000F0E2FD0123C42248F6F9
:1010D00054411E2000F0DBFD01238E2248F65541CD
:1010E0001E2000F0D4FD0123212248F656411E2087
:1010F00000F0CDFD0123002248F657411E2000F0EC
:10110000C6FD0123002248F658411E2000F0BFFD15
:1011100001231E2248F659411E2000F0B8FD01238C
:10112000002248F65A411E2000F0B1FD01230022A2
:1011300048F65B411E2000F0AAFD0123002248F67C
:101140005C411E2000F0A3FD0123FC2248F65D4116
:101150001E2000F09CFD0123002248F65E411E2067
:1011600000F095FD0123542248F65F411E2000F057
:101170008EFD01236F2248F660411E2000F087FD9E
:101180000123732248F661411E2000F080FD0123F7
:10119000682248F662411E2000F079FD0123692291
:1011A00048F663411E2000F072FD0123622248F6DA
:1011B00064411E2000F06BFD0123612248F6654169
:1011C0001E2000F064FD01232D2248F666411E20FA
:1011D00000F05DFD0123552248F667411E2000F016
:1011E00056FD0123482248F668411E2000F04FFDBD
:1011F0000123322248F669411E2000F048FD0123F8
:10120000442248F66A411E2000F041FD01230A22D3
:1012100048F66B411E2000F03AFD0123002248F6FB
:101220006C411E2000F033FD0123002248F66D4181
:101230001E2000F02CFD0123002248F66E411E20E6
:1012400000F025FD0123FD2248F66F411E2000F02D
:101250001EFD0123002248F670411E2000F017FDFC
:101260000123142248F671411E2000F010FD0123D5
:10127000782248F672411E2000F009FD0123012268
:1012800048F673411E2000F002FD0123FF2248F6BC
:1012900074411E2000F0FBFC01231D2248F675411D
:1012A0001E2000F0F4FC0123002248F676411E20A7
:1012B00000F0EDFC01230A2248F677411E2000F0E1
:1012C000E6FC0123202248F678411E2000F0DFFCD6
:1012D0000123202248F679411E2000F0D8FC01238A
:1012E000202248F67A411E2000F0D1FC0123202262
:1012F00048F67B411E2000F0CAFC0123202248F65C
:101300007C411E2000F0C3FC0123202248F67D41D1
:101310001E2000F0BCFC0123012248F67E411E2065
:1013200000F0B5FC0123E12248F67F411E2000F0C9
:10133000AEFC0123022248F680411E2000F0A7FCEB
:101340000123032248F681411E2000F0A0FC012366
:101350001A2248F682411E2000F099FC01237122D6
:1013600048F683411E2000F092FC0123472248F6F4
:1013700084411E2000F08BFC0123902248F6854119
:101380001E2000F084FC0123102248F686411E2016
:1013900000F07DFC0123102248F687411E2000F05A
:1013A00076FC0123012248F688411E2000F06FFCE4
:1013B0000123102248F689411E2000F068FC012319
:1013C000012248F68A411E2000F061FC0123102210
:1013D00048F68B411E2000F05AFC0123232248F6D8
:1013E0008C411E2000F053FC0123092248F68D4158
:1013F0001E2000F04CFC0123072248F68E411E20DF
:1014000000F045FC0123012248F68F411E2000F028
:101410003EFC0123832248F690411E2000F037FC59
:101420000123012248F691411E2000F030FC0123E7
:10143000002248F692411E2000F029FC01230022E0
:1014400048F693411E2000F022FC0123652248F655
:1014500094411E2000F01BFC0123032248F6954115
:101460001E2000F014FC01230C2248F696411E2099
:1014700000F00DFC0123002248F697411E2000F0E9
:1014800006FC0123102248F698411E2000F0FFFBC5
:101490000123002248F699411E2000F0F8FB0123A9
:1014A000022248F69A411E2000F0F1FB01233A2265
:1014B00048F69B411E2000F0EAFB0123802248F6FB
:1014C0009C411E2000F0E3FB0123182248F69D41B9
:1014D0001E2000F0DCFB0123712248F69E411E20F5
:1014E00000F0D5FB0123382248F69F411E2000F072
:1014F000CEFB01232D2248F6A0411E2000F0C7FBA1
:101500000123402248F6A1411E2000F0C0FB012328
:10151000582248F6A2411E2000F0B9FB01232C22DC
:1015200048F6A3411E2000F0B2FB0123452248F6F5
:10153000A4411E2000F0ABFB0123002248F6A54188
:101540001E2000F0A4FB0123C42248F6A6411E2061
:1015500000F09DFB01238E2248F6A7411E2000F0DB
:1015600096FB0123212248F6A8411E2000F08FFBA4
:101570000123002248F6A9411E2000F088FB012328
:10158000002248F6AA411E2000F081FB01231E2202
:1015900048F6AB411E2000F07AFB0123D82248F622
:1015A000AC411E2000F073FB0123092248F6AD4137
:1015B0001E2000F06CFB0123802248F6AE411E2065
:1015C00000F065FB0123A02248F6AF411E2000F089
:1015D0005EFB0123202248F6B0411E2000F057FB9D
:1015E0000123E02248F6B1411E2000F050FB012308
:1015F0002D2248F6B2411E2000F049FB01231022A3
:1016000048F6B3411E2000F042FB0123102248F6A9
:10161000B4411E2000F03BFB0123602248F6B54197
:101620001E2000F034FB0123A22248F6B6411E2002
:1016300000F02DFB0123002248F6B7411E2000F0E8
:1016400026FB0123C42248F6B8411E2000F01FFBF0
:1016500001238E2248F6B9411E2000F018FB012319
:10166000212248F6BA411E2000F011FB012300227E
:1016700048F6BB411E2000F00AFB0123002248F679
:10168000BC411E2000F003FB0123182248F6BD4197
:101690001E2000F0FCFA0123022248F6BE411E2063
:1016A00000F0F5FA01233A2248F6BF411E2000F06F
:1016B000EEFA0123802248F6C0411E2000F0E7FA2E
:1016C0000123182248F6C1411E2000F0E0FA012350
:1016D000712248F6C2411E2000F0D9FA01233822B7
:1016E00048F6C3411E2000F0D2FA01232D2248F60D
:1016F000C4411E2000F0CBFA0123402248F6C54128
:101700001E2000F0C4FA0123582248F6C6411E20CC
:1017100000F0BDFA01232C2248F6C7411E2000F03C
:10172000B6FA0123452248F6C8411E2000F0AFFA60
:101730000123002248F6C9411E2000F0A8FA012327
:10174000C42248F6CA411E2000F0A1FA01238E22CD
:1017500048F6CB411E2000F09AFA0123212248F6D8
:10176000CC411E2000F093FA0123002248F6CD411F
:101770001E2000F08CFA0123002248F6CE411E20E4
:1017800000F085FA01231E2248F6CF411E2000F00A
:101790007EFA0123D82248F6D0411E2000F077FAC5
:1017A0000123092248F6D1411E2000F070FA0123DE
:1017B000802248F6D2411E2000F069FA0123A022BF
:1017C00048F6D3411E2000F062FA0123202248F699
:1017D000D4411E2000F05BFA0123E02248F6D541F7
:1017E0001E2000F054FA01232D2248F6D6411E2077
:1017F00000F04DFA0123102248F6D7411E2000F0D8
:1018000046FA0123102248F6D8411E2000F03FFA84
:101810000123602248F6D9411E2000F038FA012346
:10182000A22248F6DA411E2000F031FA01230022FC
:1018300048F6DB411E2000F02AFA0123C42248F6B4
:10184000DC411E2000F023FA01238E2248F6DD4100
:101850001E2000F01CFA0123212248F6DE411E2042
:1018600000F015FA0123002248F6DF411E2000F0A7
:101870000EFA0123002248F6E0411E2000F007FA8C
:101880000123182248F6E1411E2000F000FA01234E
:10189000002248F6E2411E2000F0F9F9012300225F
:1018A00048F6E3411E2000F0F2F90123002248F639
:1018B000E4411E2000F0EBF90123002248F6E54147
:1018C0001E2000F0E4F90123002248F6E6411E2024
:1018D00000F0DDF90123002248F6E7411E2000F068
:1018E000D6F90123002248F6E8411E2000F0CFF986
:1018F0000123002248F6E9411E2000F0C8F9012327
:10190000002248F6EA411E2000F0C1F9012300221E
:1019100048F6EB411E2000F0BAF90123002248F6F8
:10192000EC411E2000F0B3F90123002248F6ED41FE
:101930001E2000F0ACF90123002248F6EE411E20E3
:1019400000F0A5F90123002248F6EF411E2000F027
:101950009EF90123002248F6F0411E2000F097F97D
:101960000123002248F6F1411E2000F090F90123E6
:10197000002248F6F2411E2000F089F901230022DE
:1019800048F6F3411E2000F082F90123002248F6B8
:10199000F4411E2000F07BF90123002248F6F541B6
:1019A0001E2000F074F90123002248F6F6411E20A3
:1019B00000F06DF90123002248F6F7411E2000F0E7
:1019C00066F90123002248F6F8411E2000F05FF975
:1019D0000123002248F6F9411E2000F058F90123A6
:1019E000002248F6FA411E2000F051F9012300229E
:1019F00048F6FB411E2000F04AF90123002248F678
:101A0000FC411E2000F043F90123002248F6FD416D
:101A10001E2000F03CF90123002248F6FE411E2062
:101A200000F035F90123DD2248F6FF411E2000F0C9
:101A30002EF90123012248F2EC511E2000F027F973
:101A40000123242248F260511E2000F020F90123D6
:101A5000112248F263511E2000F019F901230F22D0
:101A600048F264511E2000F012F90123422248F688
:101A700002211E2000F00BF90123022248F24351FB
:101A80001E2000F004F90123102248F244511E20C8
:101A900000F0FDF8012300224FF406411E2000F063
:101AA000F6F80123F32248F202611E2000F0EFF85D
:101AB0000123022248F203611E2000F0E8F801230E
:101AC0000C2248F204611E2000F0E1F801230522F7
:101AD00048F206611E2000F0DAF80123002248F2E5
:101AE00007611E2000F0D3F80123022248F2526160
:101AF0001E2000F0CCF804233D4A48F271611E20FC
:101B000000F0C5F804233B4A48F275611E2000F03E
:101B1000BEF80123002248F280611E2000F0B7F8D1
:101B20000123012248F24A511E2000F0B0F802E0E1
:101B3000642000F084FC6D1C0023012248F2205137
:101B40001E2000F077F80400C4F3C010002805D16F
:101B50001F2DEDD32021284800F0B8FA4FF47A70F9
:101B600000F06DFC0123FF2248F20B511E2000F013
:101B70008EF8022340F6BF7214211E2000F087F871
:101B8000002502E0642000F05AFC6D1C00230122B5
:101B900048F220511E2000F04DF80400C4F3C0109C
:101BA000002805D11F2DEDD32021134800F08EFA17
:101BB000022340F6374204211E2000F068F8022379
:101BC000002206211E2000F062F8042306224FF4B2
:101BD00088711E2000F05BF8042306224FF4447144
:101BE0001E2000F054F84FF47A7000F028FC31BD4C
:101BF000BA490C0289B0E101000C014038B504007B
:101C00000D0000F0B2FA7C2000F05EFB00F0EFFA6D
:101C10002000C0B200F058FB00F0E9FA2800C0B282
:101C200000F052FB00F0E3FA00F0C0FA0A2000F0E6
:101C3000E7FB31BD38B50C00002500F096FA1E20F8
:101C400000F042FB00F0D3FAA4B2200AC0B200F0C8
:101C50003BFB00F0CCFAA4B24FF4807194FBF1F09E
:101C600000FB1140C0B200F02FFB00F0C0FA00F002
:101C70007CFA1F2000F028FB00F0B9FA002000F0E9
:101C800051FB050000F092FAEDB2280032BDF8B524
:101C900006000F001D0000A80021016000241000B4
:101CA0008DF80000100A8DF80100100C8DF802006C
:101CB000100E8DF8030000F058FA3000C0B200F0AA
:101CC00003FB00F094FABFB2380AC0B200F0FCFA8D
:101CD00000F08DFA3800C0B200F0F6FA00F087FA92
:101CE00000A8040005E0207800F0EEFA641C00F083
:101CF0007EFA2800451EC0B20028F4D100F056FA42
:101D00000020F2BDDFF8A802006850F00100DFF803
:101D1000A0120860DFF89C020068DFF89C120840FF
:101D2000DFF890120860DFF888020068DFF88C1294
:101D30000840DFF87C120860DFF87402006830F4B5
:101D40008020DFF86C120860DFF86802006830F469
:101D5000FE00DFF8601208605FF41F00DFF8601219
:101D600008607047DFF84812096831F48031DFF805
:101D700040221160DFF83812096831F48021DFF861
:101D800030221160B0F5803F03D0B0F5802F09D02C
:101D900011E0DFF81C02006850F48030DFF8101208
:101DA000086008E0DFF80802006850F4A020DFF8BF
:101DB00000120860FFE7704780B500200090002007
:101DC0000021312000F0D2F801000098401C009062
:101DD0000098B0F5A06F02D0C9B20029F1D031202F
:101DE00000F0C4F8002801D0012000E00020C0B2BB
:101DF00002BD00226F4B1B681A0032F47C120843AC
:101E000002436C4802607047C0B26E490860704778
:101E10000021684A12681100890889000143654859
:101E2000016070476348006810F00C0070470021A3
:101E3000604A1268110031F0F00101435D48016011
:101E4000704700215B4A1268110031F4E0610143E0
:101E50005848016070470021564A1268110031F459
:101E6000605151EAC00153480160704730B400220C
:101E70000021002300244F4D2D6815F00C052A0089
:101E8000002A04D0042A05D0082A06D021E04F49B0
:101E9000016020E04D4901601DE04649096811F4E8
:101EA0007011444A126812F48033890C891C002B8B
:101EB00003D1474A514301600AE03E4A1268920347
:101EC00003D5434A5143016002E0404A5143016057
:101ED00001E03E4901603749096811F0F00212093A
:101EE0003C49545C0168E14041603249096811F4A1
:101EF000E062120A3749545C4168E14081602D4933
:101F0000096811F46052D20A3249545C4168E140D8
:101F1000C1602849096811F44042920B2E49545C73
:101F2000C168B1FBF4F1016130BC7047C9B200294E
:101F300005D02A49096808432849086005E027496F
:101F4000096831EA0000254908607047C9B20029D4
:101F500005D02349096808432149086005E0204964
:101F6000096831EA00001E490860704710B4002279
:101F700000230021C0B24409E4B22200012A02D1A8
:101F80000B490B6806E0022A02D10F490B6801E0F9
:101F900014490B68C0B210F01F0233FA02F0C007F8
:101FA00001D5012100E000210800C0B210BC70473B
:101FB00000100240041002400000FFF8FFFFF6FE90
:101FC00008100240600042422010024000127A00D5
:101FD00000093D0024010020540100201810024097
:101FE0001C10024024100240F0B4002200260024FD
:101FF00000250023002791F803C01CF00F0C624657
:1020000091F803C05FEACC6C01D58B781A430B784A
:102010001B0621D00368002406E0CD78482D02D1AC
:102020000125A5400561641C082C14D20125A5409A
:102030000E882E40AE42F6D1A5000F2616FA05F7FF
:10204000BB4312FA05F52B43CD78282DE5D10125A8
:10205000A5404561E7E703600B88FF2B26DD436859
:10206000002420E0012514F10806B5400E882E401A
:10207000AE4217D1A5000F2616FA05F7BB4312FA98
:1020800005F52B43CD78282D04D1012514F1080640
:10209000B5404561CD78482D04D1012514F10806DD
:1020A000B5400561641C082CDCD34360F0BC70476C
:1020B0000022C06889B2084201D0012200E000225B
:1020C0001000C0B2704789B20161704789B24161A6
:1020D0007047D2B2002A02D089B2016101E089B210
:1020E0004161704710B400220F2311F00304E4B2E1
:1020F000A400A3401A00C9B28B100E4C54F8233030
:1021000033EA0202C9B28B100A4C44F82320C9B248
:102110008A10084B53F82220C0B211F00303DBB23F
:102120009B0098401043C9B28910024A42F821002E
:1021300010BC70470800014080B501210820FFF75E
:10214000F5FE4FF44060ADF8000010208DF803005C
:1021500003208DF8020000A98B48FFF745FF4FF4DC
:1021600040618948FFF7AFFF01BD80B5874800682F
:102170007FF0F0210840854908608448006850F4E9
:10218000405082490860012081490860012081494E
:102190000860042000F016F900207D490860042042
:1021A00000F010F900207B49086001BD80B5774838
:1021B00000687FF0F02108407449086073480068A7
:1021C00050F44050714908600020724908600020B6
:1021D0006F490860042000F0F5F801206D4908609F
:1021E00001206B490860042000F0ECF801BD10B537
:1021F00000246648006830F4704064490860634811
:10220000006850F40040614908600120604908609E
:10221000012000F0D7F801205E490860012000F09D
:10222000D1F85D480068002807D0641CE4B2FB2C9C
:10223000F7DBFFF7BBFF012003E0002055490860F2
:10224000002010BD80B50020524908604F4800684A
:102250007FF0F02108404D4908604C48006850F478
:1022600040504A490860002049490860022000F0B7
:10227000A9F8012047490860022000F0A3F80020D7
:102280004449086001BD80B50020424908603F48CC
:1022900000687FF0F02108403C4908603B48006836
:1022A00050F4405039490860012039490860022043
:1022B00000F088F8012037490860022000F082F819
:1022C00000203449086001BD38B504002F4800687B
:1022D0007FF0F02108402D4908602C48006850F438
:1022E00040502A49086000202A490860002515E06E
:1022F000E4B2E009C0B2264908606400022000F0A0
:1023000061F8012023490860022000F05BF80020FA
:1023100020490860022000F055F86D1CEDB2082D30
:10232000E6DB31BD70B5040000251848006830F4C4
:102330007040164908601548006850F40040134981
:102340000860002612E0002012490860022000F018
:1023500039F801200F4908606D000F480068002817
:1023600000D06D1C012000F02DF8761CF6B2082E6E
:10237000E9DBE4B2002C02D1FFF785FF01E0FFF7B3
:1023800061FF2800C0B270BD000C0140040C014088
:10239000AC812142A88121422C81214280B57FF06D
:1023A000040000F0B5F8354800683549B0FBF1F09D
:1023B00034490870334800784FF47A714843324901
:1023C000088001BD2F490978484330490860002042
:1023D0002F4908602F48006850F001002D4908601F
:1023E0002C48006810F001100128F9D02948006835
:1023F00040084000274908600020254908607047D0
:1024000080B22149098848432049086000202049BA
:1024100008602048006850F001001E4908601D480F
:10242000006810F001100128F9D01A48006840082F
:10243000400018490860002015490860704780B2C4
:102440001149098848431149086000201049086073
:102450001048006850F001000E4908600D480068FF
:1024600010F001100128F9D00A4800684008400027
:10247000084908600020064908607047580100209C
:1024800000127A00BE010020B401002014E000E038
:1024900018E000E010E000E0254908432549086005
:1024A000704710B4002100220F23C478002C1DD0E7
:1024B0002049096811F4E061D1F5E061090AD1F120
:1024C0000402CB404178914082781A4011430901BF
:1024D0000278194BD1540121027812F01F02914069
:1024E00000784011154A42F8201009E001210278D5
:1024F00012F01F02914000784011114A42F820105A
:1025000010BC70470F4A114008430F4908607047DC
:10251000042806D10D48006850F004000B490860FB
:1025200005E00A48006830F0040008490860704778
:102530000000FA050CED00E000E400E000E100E03E
:1025400080E100E080FFFF1F08ED00E010E000E008
:1025500080B580B2002806D10120DFF8BC1B0968D5
:102560000882002008E0DFF8640B006800688047FC
:10257000DFF8A40B00680A3002BD80B5DFF89C0BC1
:102580004078DFF8941B0968C97888421AD3DFF8CD
:10259000880B00688078002814D1DFF87C0B006875
:1025A000808800280ED1DFF8700B0068C078DFF853
:1025B000681B09688872DFF8140B00684068804760
:1025C000002000E0022002BD80B580B2002806D1C4
:1025D0000120DFF8441B09680882002008E0DFF8CA
:1025E000EC0A006880688047DFF82C0B00680C302C
:1025F00002BD80B5DFF8200B0068C178DFF8180B4A
:1026000000684079DFF8182B126892699047DFF86C
:10261000081B0968897A00292AD0C0B200280BD18A
:10262000DFF8F41A09680979002905D1DFF8E81AFA
:1026300009688978002901D002201AE0C0B2002878
:1026400016D1DFF8880A0068C0688047DFF8C80A3A
:1026500000684079DFF8C01A0968C872DFF8B80A64
:102660000068C078DFF8B01A09680873002000E03D
:10267000022002BD80B580B2002806D10220DFF81A
:10268000981A09680882002032E00020DFF8941AC6
:102690000880DFF8840A006800787F21084231D181
:1026A000DFF8740A0068407A810608D5DFF8741AEA
:1026B000097851F00201DFF86C2A117007E0DFF8A9
:1026C000641A097811F0FD01DFF8582A11704006EC
:1026D0000FD5DFF8500A007850F00100DFF8441AF7
:1026E0000870DFF8E809006800698047DFF8340AFD
:1026F00002BDDFF8300A007810F0FE00DFF8241A7F
:102700000870EEE7DFF8100A0068007810F07F002C
:10271000012802D1DFF80C0AEAE7DFF8FC090068BB
:10272000007810F07F0002282CD1DFF8EC09006857
:10273000417911F00F00090611D5C0B2DFF8E81990
:1027400051F8200010F030001028CAD1DFF8D40969
:10275000007850F00100DFF8CC190870C1E7C0B272
:10276000DFF8C41951F8200010F44050B0F5805F34
:10277000B7D1DFF8B009007850F00100DFF8A419F4
:102780000870AEE70020B3E710B5DFF88C090068E9
:10279000007810F07F0000280BD1DFF87C0900687A
:1027A000407A10F0DF00DFF87019096848720020E5
:1027B00096E0022840F09380DFF85C0900684088CA
:1027C000002805D1DFF8500900680079002801D001
:1027D000022085E0DFF84409DFF83C1909684979EF
:1027E00031F080031C00DFF830291268527912069C
:1027F00006D5DFF8342952F8242012F0300205E023
:10280000DFF8242952F8242012F440520078834241
:1028100007D2002A05D0DFF800090068807A002876
:1028200001D102205CE0080611D5DFF8FC0850F861
:10283000240010F0300010284AD12000C0B200F06F
:102840004AFD30212000C0B200F0B5FC40E0DFF8C6
:10285000D80850F8240010F44050B0F5805F37D10C
:10286000002C1DD1DFF8C40890F82C1089B220008C
:10287000C0B200F090FDDFF8B00850F824004BF62D
:102880008F71084090F4805090F4005040F4004064
:1028900050F0800080B2DFF8901841F8240017E073
:1028A0002000C0B200F0FEFCDFF87C0850F82400E5
:1028B0004BF68F71084090F4805090F4005040F433
:1028C000004050F0800080B2DFF85C1841F824002E
:1028D000DFF8F807006840698047002000E0022028
:1028E00010BD80B5DFF830080068417931F0800014
:1028F000DFF8242812685279120606D5DFF8282856
:1029000052F8202012F0300205E0DFF81C2852F8BF
:10291000202012F44052DFF804381B7898420DD280
:10292000DFF8F4371B685B88002B07D1002A05D03D
:10293000DFF8E4271268927A002A01D102202CE005
:10294000090612D5DFF8E01751F8201048F6BF72DB
:10295000114091F0100141F4004151F0800189B221
:10296000DFF8C42742F8201011E0DFF8BC1751F857
:1029700020104BF68F72114091F4805141F40041C8
:1029800051F0800189B2DFF8A02742F82010DFF86B
:102990003C07006880698047002002BD80B5DFF8F1
:1029A00078070068407A50F02000DFF86C1709685B
:1029B0004872DFF818070068C0698047002002BD30
:1029C000DFF854271268528A80B2002807D188881D
:1029D000801ADFF8441709680882002001E00868BF
:1029E0001018704770B5DFF83007006810F1100458
:1029F0002088A16800291AD0002818D0A588A842EC
:102A000000D20500280080B2A1688847060020880F
:102A1000401B2080608828186080002000F0A1FC06
:102A20002A0092B2010089B2300000F004FD208833
:102A300000280CD04FF44050DFF8F4160880002135
:102A4000002000F09BFC3020DFF8E816088020888A
:102A5000A188884205D30320DFF8BC1609680872F4
:102A60001DE02088002805D00520DFF8AC16096895
:102A7000087214E02088002811D10620DFF898168B
:102A8000096808720020DFF8B016096889B2DFF81B
:102A9000AC2642F811003020DFF89816088070BD8F
:102AA000F8B5DFF87406006810F110052888DFF823
:102AB000681609680C7A00281FD1042C1DD1DFF894
:102AC00080060078012812D10020DFF86C16096812
:102AD00089B2DFF8682642F811003020DFF854167A
:102AE000088004240020DFF85816087004E007244A
:102AF0001020DFF8401608802BE0AE88864201D314
:102B0000042400E00224B04200D20600300080B26B
:102B1000A96888470700002000F016FC320092B236
:102B2000010089B2380000F06DFC310089B200204C
:102B300000F024FC2888801B288068883018688072
:102B40003020DFF8F01508804FF44050DFF8E01532
:102B50000880DFF8C40500680472F1BD10B50220DA
:102B6000DFF8B41509684C78DFF8AC150968097806
:102B70007F2211424ED1092C02D1FFF7FEFC69E001
:102B8000052C1BD1DFF890050068C078802811DA89
:102B9000DFF884050068807800280BD1DFF878051D
:102BA00000688088002805D1DFF86C050068807A0D
:102BB000002801D008206FE000204BE0032C10D14A
:102BC000DFF854050068C078012808D1DFF848050F
:102BD00000688088002802D1FFF7E0FE3AE002207A
:102BE00038E0012C36D1DFF830050068C0780128C4
:102BF0000ED1DFF8240500688088002808D1DFF8AE
:102C000018050068407A800602D5FFF7BDFD21E077
:102C100002201FE0DFF800150968097811F07F0134
:102C2000012904D10B2C15D1FFF7E3FC12E0DFF8EA
:102C3000E8140968097811F07F01022909D1012CF3
:102C400002D1FFF7A1FD05E0032C03D1FFF749FEF8
:102C500000E00220C0B200280BD02000C0B2DFF894
:102C6000C014096849698847C0B2032801D1092006
:102C700012E0C0B2002801D008200DE0062000219B
:102C8000DFF8B424126892B2DFF8B03443F81210BF
:102C90003021DFF8A0241180DFF87C140968087265
:102CA00010BD38B5DFF870040068407800240025B6
:102CB000062824D1DFF86004006800787F210842EC
:102CC00040F0C680DFF8500400688078C0B2012868
:102CD00004D1DFF84C040068C469B9E0C0B202282E
:102CE00004D1DFF83C040068046AB1E0C0B20328F4
:102CF00040F0AE80DFF828040068446AA8E00028AD
:102D000071D1DFF814140968498800296BD1DFF804
:102D100008140968C988022965D1DFF8FC1309681D
:102D2000097900295FD1DFF8F003006800787F217E
:102D3000084208D1DFF8E00300688088002802D14B
:102D4000DFF8004484E0DFF8D0030068007810F07A
:102D50007F00012814D10021DFF8BC03006840790E
:102D6000DFF8BC23126892699047002870D1DFF821
:102D7000A8030068807A00286AD0DFF8C84367E0BB
:102D8000DFF894030068007810F07F0002285FD11C
:102D9000DFF884030068407910F00F00DFF8781343
:102DA0000968497911F07001DFF86C2312685279D3
:102DB000120606D5DFF8702352F8202012F03002F8
:102DC00005E0DFF8642352F8202012F44052DFF8C7
:102DD0004C331B7898423BD2002939D1002A37D096
:102DE000DFF8604334E0082809D1DFF82C030068DD
:102DF00000787F2108422BD1DFF84C4328E00A28D5
:102E000026D1DFF814030068007810F07F00012855
:102E10001ED1C1480068807A002819D0BE480068D9
:102E20004088002814D1BC480068007900280FD1E0
:102E3000B9480068C08801280AD10021B648006856
:102E40004079B74A126892699047002800D1BF4C78
:102E50002000002814D0B04800684582AE480068C1
:102E600084610020A0470020AB490968098A4FF619
:102E7000FF72914213D10920A7490968087267E0DF
:102E8000A54800684078A649096809698847C0B222
:102E90000328E9D10920A0490968087258E0C0B2A6
:102EA000022804D09C480068008A002804D1082029
:102EB0009949096808724BE0974800680078000655
:102EC0003ED595480068C0880090009892490968EE
:102ED000098A884204D200988F490968088225E04F
:102EE0008D480068008A8C490968C98888421DD2CB
:102EF00089480068008A8A49096891F82C1089B2CB
:102F0000884203D200208E4908700FE08248006892
:102F1000008A8349096891F82C1090FBF1F201FBBB
:102F20001200002802D10120854908707C48006801
:102F300090F82C00784909688882FFF7B1FD07E016
:102F400003207549096808724FF440507849088099
:102F500031BD38B501247848006880B27C4931F829
:102F60001000400000F1804515F5C0456A48006832
:102F7000007A092826D028786749096808706D1CEE
:102F800028786549096848706D1CA4B215EB4405A2
:102F90002800851C008800F02DFA5F4909684880E8
:102FA000A4B215EB44052800851C008800F022FA25
:102FB000594909688880A4B215EB44052888564908
:102FC0000968C8800120544909680872524800689D
:102FD000C088002802D1FFF7C1FD01E0FFF761FEC4
:102FE00000F055F832BD80B54B480068007A0228E1
:102FF00001D0042805D1FFF753FD47480068007A47
:103000001CE0062819D144480068407805280ED1F4
:103010004148006800787F21084208D13E48006896
:10302000C07800F055F829480068006A80473C489D
:10303000006880688047082000E008203649096859
:10304000087200F024F802BD80B533480068007AA9
:10305000022801D0042801D1082012E0032801D061
:10306000052805D1FFF7BEFC2B480068007A08E070
:10307000072805D12A480068C0688047082000E07A
:10308000082025490968087200F001F802BD80B5E2
:10309000264890F82C1089B2002000F07CF91E48D8
:1030A0000068007A082806D14FF480502049088033
:1030B00010202049088018480068007A092801D1AA
:1030C000012000E00020C0B202BD0000A4010020E9
:1030D00030B412490A78002114E00B00DBB2124C24
:1030E00054F8233048F68F7423400C00E4B2234395
:1030F00043F4004353F080030C00E4B20A4D45F85A
:103100002430491C9142E8D3C0B250F080001149EC
:10311000086030BC704700009C0100205C0100206A
:10312000A001002098010020005C004080000020E9
:10313000B8010020BA010020505C0040046000404B
:10314000BF0100207526000851250008C925000888
:10315000086000404C5C0040704710B450F8041BFD
:1031600081B102681218001D50F8043BDC0744BF0F
:10317000A9F10104E31852F8044B43F8044B091F6A
:10318000F9D1EBE710BC70474FF6F8710840DFF853
:103190004C1208607047C0B2DFF8442252F8202079
:1031A00048F68F131A40114389B2C0B2DFF83022BB
:1031B00042F820107047C0B2DFF8242252F82020D5
:1031C00048F6BF731A40CB0601D592F0100289066B
:1031D00001D592F0200242F4004151F0800189B201
:1031E000C0B2DFF8FC2142F820107047C0B2DFF80F
:1031F000F02152F820204BF68F731A40CB0401D5F2
:1032000092F48052890401D592F4005242F40041B4
:1032100051F0800189B2C0B2DFF8C42142F8201019
:103220007047C0B2DFF8B81151F8201048F6BF72ED
:10323000114091F0100191F0200141F4004151F052
:10324000800189B2C0B2DFF8982142F8201070479F
:10325000C0B2DFF88C1151F820104BF68F7211407C
:1032600091F4805191F4005141F4004151F08001FA
:1032700089B2C0B2DFF8682142F820107047C0B2AE
:10328000DFF85C1151F8201048F68F62114041F4CC
:10329000004151F0800189B2C0B2DFF8442142F808
:1032A00020107047C0B2DFF8381151F820104904DF
:1032B00010D5C0B2DFF8281151F8201048F68F72EF
:1032C000114041F4404151F08001C0B2DFF81021BB
:1032D00042F820107047C0B2DFF8041151F82010F6
:1032E000490610D5C0B2DFF8F81051F8201048F6A2
:1032F0008F72114041F4004151F0C001C0B2DFF8BB
:10330000E02042F820107047DFF8D020126892B217
:10331000C0B212EBC000DFF8CC2089B2490889B2F4
:10332000490042F810107047DFF8B020126892B2DE
:10333000C0B212EBC000DFF8B02089B2490889B2F0
:10334000490042F810107047DFF89010096889B200
:10335000C0B211EBC000DFF88C1051F8100080B241
:103360007047DFF87810096889B2C0B211EBC0006D
:10337000DFF8741051F8100080B27047DFF85C205D
:10338000126892B2C0B212EBC000DFF8602089B2BE
:1033900042F810107047DFF84420126892B2C0B2B1
:1033A00012EBC000DFF8482012EB400089B23F2941
:1033B0000BDB89B24A091F23194200D1521E92B277
:1033C000910251F40041016007E089B24A08C9073F
:1033D00000D5521C92B2910201607047505C0040CF
:1033E000005C004000600040086000400460004055
:1033F0000C600040010080B2C9B2090251EA1020FD
:1034000080B2704710B492B2521C521089B2490077
:1034100001F1804313F5C04309E00178401C0478B2
:1034200051EA042119809B1C9B1C401C521E002A3F
:10343000F3D110BC704792B2521C521089B24900AD
:1034400001F1804111F5C04105E00B680380091DC1
:10345000401C401C521E002AF7D1704780B500F076
:10346000DFF9002083490968887200F005FA00201E
:10347000814908604FF43F40804908807F480088B8
:103480007F49086000207F49086001BD80B50020A9
:10349000784909688872002076490968C8727A48B4
:1034A000C0797449096848720020FFF76DFE4FF437
:1034B00000710020FFF76FFE10210020FFF77BFE58
:1034C00018210020FFF730FF58210020FFF71CFFD4
:1034D0000020FFF7D4FE6D4890F82C1089B2002030
:1034E000FFF759FF0020FFF7B3FE4FF4C061012042
:1034F000FFF751FE98210120FFF716FF4021012020
:10350000FFF749FF4FF440510120FFF76FFE4FF4E2
:10351000C0610220FFF73FFE4FF48C710220FFF7DD
:10352000F3FE40210220FFF729FF20210220FFF7B0
:1035300042FE0120534908600020FFF7C9FD01BD8C
:103540007047704780B50021C0B206281BD1494A98
:103550001268127812F07F02012A14D1454A1268CB
:103560005279002A0FD1434800688078222802D17E
:103570000FF2A90113E03F480068807821280ED19E
:103580000FF2A5010BE03B4A1268127812F07F029D
:10359000212A04D1C0B2032801D10FF2C1010800D1
:1035A000002801D1022009E0324800688161002032
:1035B000304A1268508200208847002002BD80B542
:1035C0002C490968097811F07F01212905D1C0B281
:1035D0000B2802D100F03AF800E0022002BD80B5CD
:1035E0002B4980B2FFF7ECF902BD80B5294980B2C2
:1035F000FFF7E6F902BD80B51E490968C978C9B26E
:10360000052901DB002006E0C9B2234A12EBC10103
:1036100080B2FFF7D5F902BD0000000080B51F4958
:1036200080B2FFF7CDF902BD80B51D4980B2FFF72A
:10363000C7F902BDC9B2002901D0022005E0C0B21D
:10364000002801D0022000E00020704709480068EF
:10365000C078C0B2134908600020704780B20028CB
:1036600005D10120034909680882002000E00D48C7
:10367000704700009C010020445C0040B60100201F
:10368000405C0040AC0100209C4500088000002008
:10369000340100203C010020B00000204401002043
:1036A0004C010020A801002080B500F047F800215F
:1036B0005FF00060FEF726FF4FF4C050ADF8000049
:1036C00010208DF8030003208DF8020000A9634844
:1036D000FEF78AFC4FF400616048FEF7F7FC4FF4F8
:1036E00080515E48FEF7F2FC4FF4C050ADF8000088
:1036F00004208DF8030003208DF8020000A957482C
:10370000FEF772FC00F003F8FEF748FE01BD80B53D
:1037100001210820FEF70AFC2020ADF8000010204F
:103720008DF8030003208DF8020000A94C48FEF735
:103730005BFC20214A48FEF7C6FC01BD00B585B000
:10374000FEF7E0FA5FF48030FEF70CFBFEF734FB87
:10375000C0B20128FAD1C0B2012825D10020FEF75D
:1037600066FB0020FEF777FB4FF48060FEF769FBF5
:10377000022000F023F9102000F02CF95FF48011F2
:103780005FF44030FEF735FB0120FEF73DFB3920AA
:10379000FEF7ECFB0028FAD00220FEF739FBFEF71B
:1037A00041FB0828FBD116E00020FEF7DBFA5FF4AE
:1037B000E0110020FEF71DFB0120FEF725FB39205C
:1037C000FEF7D4FB0028FAD00220FEF721FBFEF71B
:1037D00029FB0828FBD100A8FEF748FB05B000BD77
:1037E00003202049086070471F48807A002803D0D2
:1037F00005201C49086002E001201A490860704752
:1038000080B5C0B2002805D04FF480711448FEF78F
:103810005DFC04E04FF480711148FEF754FC01BDDB
:103820001248006812490968002815D0114A9070A2
:10383000020A104B1A71020C0E4B9A71000E0D4ABF
:1038400010720C488172080A0A4A1073080C094A5F
:103850009073080E07490874704700000008014083
:10386000000C0140AC01002064010020E8F7FF1FBC
:10387000ECF7FF1FD000002080B50120FFF7C0FF4C
:10388000012080B249490860002049490880484821
:103890000088464908600020464908604FF4E0501F
:1038A000434908804248008840490860002002BD22
:1038B00080B53E48006850F0080080B23B4908607F
:1038C0003A48006850F0040080B238490860FFF7B9
:1038D00087FF01BD80B5354800684FF6FB71084091
:1038E00080B232490860FFF77FFF4FF43F402F4915
:1038F000086001BD80B5C0B2072801D02E4908700C
:103900002D480078002808D0022812D00BD30428B4
:1039100023D015D305282ED042E0FFF7DBFF062089
:10392000254908703FE0FFF7D5FF042022490870C1
:1039300039E002202049487003201F49087032E016
:103940001D484078401E1C4948701B48407800289C
:1039500002D104201849087025E01448006850F08E
:10396000100080B2114908600520134908700A2030
:103970001149487017E010484078401E0E494870C1
:103980000D48407800280AD1084800684FF6EF71CA
:10399000084080B20549086006200749087002E027
:1039A00006200549087001BD00000000405C004091
:1039B000B6010020445C0040B00100200021DFF887
:1039C00034201268110011F038010143DFF824009F
:1039D00001607047DFF81C10096831F01001DFF852
:1039E00014201160DFF80C1009680843DFF8041098
:1039F000086070470020024080B50020ADF800004C
:103A000039E086480078864951F82000ADF800007A
:103A1000BDF80000000414D580480078804951F8B2
:103A2000200040F68F7108407C4909787C4A42F8B2
:103A300021007A4800787B4911EB800050F8040C93
:103A40008047BDF80000000615D574480078744919
:103A500051F8200080B248F60F7108406F4909788C
:103A60006F4A42F821006D4800786F4911EB8000E1
:103A700050F8040C80476D4800686D4908800004C8
:103A800040F1CA806A48008810F00F00634908704E
:103A9000624800780028B4D1614800686549088010
:103AA0006448008810F0300063490880614800884D
:103AB00010F440505F4908805948006880B24BF6C6
:103AC000BF71084090F4005090F0200080B240F4A4
:103AD000004050F080005249086055480088C006F8
:103AE0002FD44F48006880B248F60F7108404C4907
:103AF0000860FFF778FA4A48006880B24BF6BF7159
:103B000008404C490988C90401D590F480504949BE
:103B10000988890401D590F4005047490988C906ED
:103B200001D590F0100044490988890601D590F02C
:103B3000200080B240F4004050F080003849086016
:103B40006AE037480068ADF80000BDF800000005E5
:103B50002ED53348006840F68F7108403049086020
:103B6000FFF7F7F92E48006880B24BF6BF710840A6
:103B700030490988C90401D590F480502D4909883D
:103B8000890401D590F400502B490988C90601D554
:103B900090F0100028490988890601D590F020008E
:103BA00080B240F4004050F080001D49086033E0CE
:103BB000BDF8000000047FF55EAF1948006840F6CC
:103BC0008F71084016490860FFF73EFA14480068F4
:103BD00080B24BF6BF71084016490988C90401D567
:103BE00090F4805013490988890401D590F400505D
:103BF00011490988C90601D590F010000E490988BD
:103C0000890601D590F0200080B240F4004050F0C9
:103C1000800003490860FFE701BD0000C1010020EA
:103C2000005C004008010020EC000020445C0040E3
:103C3000BC010020B8010020BA01002080B501219C
:103C40000820FEF773F94FF48050ADF80000102003
:103C50008DF8030003208DF8020000A9DFF80002B0
:103C6000FEF7C2F94FF480517D48FEF72CFA01208F
:103C70007C49086000F0FEF8002000F043F900F0F5
:103C800001F801BD10B5002076490860752000F0EC
:103C90004CF90400E4B2682C21D180216B2000F0A3
:103CA00041F86420FEF7ACFB0321682000F03AF8ED
:103CB00001216A2000F036F80021682000F032F877
:103CC00000216A2000F02EF86420FEF799FB00F036
:103CD00008F80120634908602000C0B200E000201D
:103CE00010BD1FB502A860490CC90CC008390838BE
:103CF00000A85E490CC90CC008390838002401200E
:103D000004000BE0E4B200A8215CE4B202A8205C4D
:103D100000F008F80A20FEF773FB641CE4B2082CDC
:103D2000F0DB1FBD10B50C0000214E4A1160C0B27F
:103D300000F0FBF82000C0B200F0F7F8012049497C
:103D4000086010BD1FB500240E2200A93B2000F022
:103D500069F824B22012464988704548C4709DF81D
:103D60000600434988719DF807004149C8719DF8D4
:103D700000003F4908729DF801003D4948729DF8D6
:103D800002003B4988729DF803003949C8729DF8CA
:103D90000400374908739DF80500354948739DF8BC
:103DA0000800334981F820009DF80900304981F866
:103DB00021009DF80A002E4981F822009DF80B0091
:103DC0002B4981F823009DF80C00294981F8240033
:103DD0009DF80D00264981F82500254890F8380007
:103DE000234981F83800224890F83900204981F8A9
:103DF00039001F4890F83A001D4981F83A001C48E4
:103E000090F83B001A4981F83B00194890F83C00B3
:103E1000174981F83C00164890F83D00144981F894
:103E20003D001FBD70B50C001500002600210D4A95
:103E3000116050F08000C0B200F077F8002006005A
:103E400005E0FF2000F071F8F6B23055761CF6B2AE
:103E5000EDB2AE42F5D301200249086070BD00000A
:103E6000000C0140B0812142D8460008E04600081D
:103E70000000002000B587B001210820FEF756F8A9
:103E800001214FF48040FEF761F84FF46040ADF837
:103E9000000018208DF8030003208DF8020000A90F
:103EA0003548FEF7A1F84FF460413348FEF70BF9AF
:103EB0000020ADF804004FF48270ADF80600002039
:103EC000ADF808000220ADF80A000120ADF80C00A2
:103ED0004FF40070ADF80E003820ADF8100000204F
:103EE000ADF812000720ADF8140001A9234800F036
:103EF00047F80121214800F063F8FF2000F015F891
:103F000007B000BD80B51D4909884FF6C772114042
:103F10001A4A118019490988C0B208431749088014
:103F20000121164800F04CF801BD38B50400002509
:103F30000221124800F056F8002805D16D1CEDB2A0
:103F4000C92DF5DB002016E0E4B2210089B20B4850
:103F500000F044F800250121084800F043F800284B
:103F600005D16D1CEDB2C92DF5DB002003E003483F
:103F700000F036F8C0B232BD000C014000380040FD
:103F800010B4002203881A0012F441520B884C88A6
:103F900023438C882343CC8823430C8923434C89B7
:103FA00023438C892343CC8923431A430280828B89
:103FB0004FF2FF731A408283098A018210BC704756
:103FC000C9B2002904D0018851F04001018004E009
:103FD00001884FF6BF7211400180704781817047A0
:103FE0008089704700220089084201D0012200E048
:103FF00000221000C0B2704780B54F48006850F0F2
:1040000001004D4908604D4800684D4908404B4942
:104010000860494800684B490840474908604648DD
:10402000006830F48020444908604448006830F457
:10403000FE00424908605FF41F004349086000F039
:1040400005F85FF000604149086001BD80B500F0EF
:1040500001F801BD82B00020019000200090364898
:10406000006850F48030344908603348006810F428
:10407000003000900198401C01900098002803D166
:104080000198B0F5A06FF0D12B480068800302D5ED
:104090000120009001E0002000900098012847D105
:1040A0002B48006850F01000294908602848006833
:1040B00080088000264908602548006850F002000A
:1040C000234908601D4800681C4908601B480068B7
:1040D0001A4908601948006850F480601749086060
:1040E0001648006830F47C101449086013480068D2
:1040F00050F4E810114908600F48006850F08070D3
:104100000D4908600C4800688001FBD50B48006829
:1041100080088000094908600848006850F00200E3
:10412000064908600548006810F00C000828F9D11D
:1041300002B070470000000000100240041002406E
:104140000000FFF8FFFFF6FE0810024008ED00E057
:1041500000200240704780B500F0A6F801BD38B5D8
:104160000024404800784049097808183D49087003
:104170003C480078212804DB01203A4908703F249C
:1041800003E03948007810F120040320FEF738F9E5
:1041900000250EE008213548FDF795FF0120FEF7C8
:1041A00011F908213148FDF791FF0120FEF70AF9C6
:1041B0006D1CEDB2E4B2A542ECD308212B48FDF70B
:1041C00082FF20212A48FDF773FFD0F10102D2B20D
:1041D00020212748FDF77DFF012000F01FF931BDA8
:1041E00038B500241F4800781F490978401A1D4936
:1041F00008701C480078002804D120201949087054
:10420000012404E018480078D0F12100441E032066
:10421000FEF7F6F800250EE008211448FDF753FFDD
:104220000120FEF7CFF808211048FDF74FFF0120CD
:10423000FEF7C8F86D1CEDB2E4B2A542ECD308213C
:104240000A48FDF740FF20210948FDF731FFD0F172
:104250000102D2B220210648FDF73BFF022000F008
:10426000DDF831BD60010020EA440008000801408B
:10427000000C01407047FEE7FEE7FEE7FEE77047EF
:1042800070477047704750F8041B61B150F8042B19
:10429000D30744BFA9F101039A18002342F8043B55
:1042A000091FFAD1EFE7704780B5344800683449F8
:1042B000088033480088334909880840400506D5FE
:1042C0004FF6FF302D4908602F48406880472C4842
:1042D00000882C4909880840800403D54DF6FF70FA
:1042E0002649086026480088264909880840C004F5
:1042F00006D54EF6FF70214908600020FFF7FAFA54
:104300001F4800881F490988084000050DD51F482F
:104310000078002802D0FFF7CBFA02E00220FFF776
:10432000E9FA4FF2FF7015490860154800881549F1
:1043300009880840800508D54FF6FF500F490860EE
:1043400013480078401C124908700D4800880D4938
:1043500009880840C00506D54FF6FF600749086088
:104360000720FFF7C7FA0648008806490988084071
:10437000000401D5FFF740FB01BD00BF445C0040D5
:10438000BC010020B6010020800000206101002057
:10439000C20100200021234A11008279002A35D071
:1043A000204A126803689A431E4B1A601E4A12681C
:1043B00003689A431C4B1A60027951180A68036813
:1043C0001A430A601949096802689143174A116043
:1043D0001749096802689143154A1160417910290B
:1043E0000CD11249096802681143104A1160104942
:1043F0000968006808430E4908600EE009494279DF
:1044000051180A6800681043086006E002795118E4
:104410000A68006832EA00000860704705490860D1
:1044200070470000000401400404014008040140FA
:104430000C0401401404014080B501210420FDF763
:1044400075FD0320ADF8000048208DF8030000A999
:104450000248FDF7C9FD01BD000000000008014051
:10446000E0B5FFF7E9FF4FF4A060FEF715F8012172
:104470000120FDF75BFD00210020FDF733FE012048
:10448000019000208DF8080008208DF8090001A88F
:10449000FFF780FF01210020FDF724FE022001909C
:1044A00008208DF8090001A8FFF774FF06208DF899
:1044B000000002208DF8010003208DF80200012089
:1044C0008DF8030000A8FDF7ECFF07208DF8000031
:1044D00002208DF8010001208DF8020001208DF8E6
:1044E000030000A8FDF7DDFF07BD010080B5012036
:1044F0000B49087020210B48FDF7DAFDD0F10102CD
:10450000D2B220210748FDF7E4FD40229821064859
:10451000FEF791FF4FF440510120FEF767FE01BD09
:10452000C0010020000C0140400000207047000046
:1045300070B504000D00160014F07F00FEF704FFB4
:10454000320092B2010089B22800FEF75BFF310011
:1045500089B214F07F00FEF711FF14F07F00FEF720
:1045600060FE002070BD000080B5FFF79DF8FFF7EA
:1045700077FFFBF7BBFDFFF761FB05490548FFF738
:10458000E1FB3E2204498120FFF7D2FFF5E700005E
:104590008C01002080010020000000200902290079
:1045A000010100803209040000020300000009211B
:1045B00010010001222100070582034000200705A9
:1045C000010340001000000010B50749794418317C
:1045D000064C7C44163404E00A68081D51188847CC
:1045E0000146A142F8D110BD2C0000004C00000093
:1045F000058C0901A101090315002600FF75089526
:10460000408102090415002600FF750895409102BB
:10461000C000000073FCFFFF600000006401002088
:104620000000000037EBFFFF640100005C010000A8
:10463000000000200000000000F00BF8002801D06E
:10464000FFF7C2FF0020C046C046FFF78DFF00F015
:1046500002F80120704700F001B800000746384614
:1046600000F002F8FBE7000080B5C046C046024AF1
:1046700011001820ABBEFBE726000200180349001A
:104680004400450041004C0045004E0053005F00CF
:104690006B003200120100020000004083045457F6
:1046A00000020102030100001403490064006500D8
:1046B00061006C00730065006500000001488047E0
:1046C00001480047F93F0008CD460008C046C046F3
:1046D000C046C046FFF7B0FF191A1B1C1D6A6B6C61
:1046E000070018180810000004030904FFF7FEBFB4
:1046F000FFF7FEBFFFF7FEBFFFF7FEBFFFF7FEBFEE
:10470000FFF7FEBFFFF7FEBFFFF7FEBFFFF7FEBFDD
:10471000FFF7FEBFFFF7FEBFFFF7FEBFFFF7FEBFCD
:10472000FFF7FEBFFFF7FEBFFFF7FEBFFFF7FEBFBD
:10473000FFF7FEBFFFF7FEBFFFF7FEBFFFF7FEBFAD
:10474000FFF7FEBFFFF7FEBFFFF7FEBFFFF7FEBF9D
:10475000FFF7FEBFFFF7FEBFFFF7FEBFFFF7FEBF8D
:10476000FFF7FEBFFFF7FEBFFFF7FEBFFFF7FEBF7D
:10477000FFF7FEBFFFF7FEBFFFF7FEBFFFF7FEBF6D
:10478000FFF7FEBFFFF7FEBF0101E83000001C0C81
:10479000FFC1305DE5C016E00000C0000B00010263
:1047A000FFA6405CE200148EFFFFC8000B4000D65D
:1047B00000000000000000000000000000000000F9
:1047C00000000000000000006161616262626363DA
:1047D00064646465656566666630303031313132F7
:1047E0003232333333343434616161626262636321
:1047F00064646465656566666630303031313132D7
:1048000032323333333434345D3400088D340008AD
:10481000413500084335000845350008BF3500081C
:1048200035360008DF350008EB350008F73500089D
:104830000000000040000000E846000804000000FE
:10484000A8460008140000007C460008180000007C
:10485000D00000201A0000001A034D003100300083
:104860003000300056003000310000000000000031
:1048700000000000593100082D450008593100089A
:1048800059310008593100085931000859310008E0
:10489000ED44000859310008593100085931000829
:1048A0005931000859310008593100080000000052
:1048B00001020304010203040607080994460008E4
:1048C000120000009C45000829000000F045000887
:1048D00021000000AE45000809000000020406089F
:0C48E00000A24A040301000001010000D6
:04000005080046CDDC
:00000001FF
