:020000040800F2
:1000000020080020690B0008C70A0008C90A000878
:10001000CB0A0008CD0A0008CF0A00080000000043
:10002000000000000000000000000000D10A0008ED
:10003000D30A000800000000D50A0008D70A00080B
:10004000850B0008890B00088D0B0008910B000838
:10005000950B0008990B00089D0B0008A10B0008E8
:10006000A50B0008A90B0008AD0B0008B10B000898
:10007000B50B0008B90B0008BD0B0008C10B000848
:10008000C50B0008C90B0008CD0B0008D10B0008F8
:10009000D50B0008D90B0008DD0B0008E10B0008A8
:1000A000E50B0008E90B0008ED0B0008F10B000858
:1000B000F50B0008F90B0008FD0B0008010C000807
:1000C000050C0008090C00080D0C0008110C0008B4
:1000D000150C0008190C00081D0C0008210C000864
:1000E000250C0008290C00082D0C0008DFF8A802D8
:1000F000006850F00100DFF8A0120860DFF89C02F1
:100100000068DFF89C120840DFF890120860DFF802
:1001100088020068DFF88C120840DFF87C12086063
:10012000DFF87402006830F48020DFF86C12086099
:10013000DFF86802006830F4FE00DFF86012086043
:100140005FF41F00DFF8601208607047DFF84812A4
:10015000096831F48031DFF840221160DFF838128D
:10016000096831F48021DFF830221160B0F5803F5A
:1001700003D0B0F5802F09D011E0DFF81C02006831
:1001800050F48030DFF81012086008E0DFF8080251
:10019000006850F4A020DFF800120860FFE7704705
:1001A00080B50020009000200021312000F0D2F81E
:1001B00001000098401C00900098B0F5A06F02D09C
:1001C000C9B20029F1D0312000F0C4F8002801D0D4
:1001D000012000E00020C0B202BD00226F4B1B686E
:1001E0001A0032F47C12084302436C4802607047E4
:1001F000C0B26E49086070470021684A1268110059
:1002000089088900014365480160704763480068B8
:1002100010F00C0070470021604A1268110031F0A4
:10022000F00101435D480160704700215B4A12689C
:10023000110031F4E061014358480160704700212A
:10024000564A1268110031F4605151EAC001534816
:100250000160704730B400220021002300244F4D7C
:100260002D6815F00C052A00002A04D0042A05D0B8
:10027000082A06D021E04F49016020E04D49016085
:100280001DE04649096811F47011444A126812F4DD
:100290008033890C891C002B03D1474A51430160EC
:1002A0000AE03E4A1268920303D5434A5143016073
:1002B00002E0404A5143016001E03E490160374994
:1002C000096811F0F00212093C49545C0168E140F0
:1002D00041603249096811F4E062120A3749545CFE
:1002E0004168E14081602D49096811F46052D20AE9
:1002F0003249545C4168E140C1602849096811F401
:100300004042920B2E49545CC168B1FBF4F101618B
:1003100030BC7047C9B2002905D02A490968084392
:100320002849086005E02749096831EA00002549A5
:1003300008607047C9B2002905D0234909680843FD
:100340002149086005E02049096831EA00001E499A
:100350000860704710B4002200230021C0B2440995
:10036000E4B22200012A02D10B490B6806E0022AFE
:1003700002D10F490B6801E014490B68C0B210F0BC
:100380001F0233FA02F0C00701D5012100E000216D
:100390000800C0B210BC70470010024004100240B8
:1003A0000000FFF8FFFFF6FE081002406000424226
:1003B0002010024000127A0000093D0000000020D9
:1003C00010000020181002401C10024024100240AF
:1003D00080B54F48006850F001004D4908604D4815
:1003E00000684D4908404B490860494800684B493E
:1003F0000840474908604648006830F48020444976
:1004000008604448006830F4FE00424908605FF428
:100410001F004349086000F005F85FF000604149A3
:10042000086001BD80B500F001F801BD82B0002078
:100430000190002000903648006850F48030344924
:1004400008603348006810F4003000900198401CA8
:1004500001900098002803D10198B0F5A06FF0D169
:100460002B480068800302D50120009001E00020A5
:1004700000900098012847D12B48006850F01000E8
:1004800029490860284800688008800026490860DB
:100490002548006850F00200234908601D480068A4
:1004A0001C4908601B4800681A4908601948006820
:1004B00050F48060174908601648006830F47C10DA
:1004C000144908601348006850F4E81011490860A6
:1004D0000F48006850F080700D4908600C480068B3
:1004E0008001FBD50B48006880088000094908603E
:1004F0000848006850F00200064908600548006896
:1005000010F00C000828F9D102B07047000000007C
:1005100000100240041002400000FFF8FFFFF6FE4A
:100520000810024008ED00E0002002402DE9F043F1
:1005300085B004000D005FF0000900260427DFF8F5
:10054000D880A08881464FF6C07010EA090900A83B
:10055000FFF780FE029880463048B8FBF0F00600B6
:1005600056EA0909A4F8049020884FF6FE71084065
:1005700020805FF000092868294988420CD2286849
:100580004000B8FBF0F7BFB2042F00DA042757EAA7
:100590000909701C208424E0E8884BF6FF7188422A
:1005A00005D1286803214843B8FBF0F706E0286826
:1005B00019214843B8FBF0F757F48047380501D1BB
:1005C00057F0010757F4004050EA0909B6B24FF45A
:1005D000967000FB06F04FF47A7190FBF1F0401C2E
:1005E0002084A4F81C90208850F001002080B4F8EA
:1005F00000904FF6F53010EA0909A8886989084388
:1006000050EA0909A4F80090A889298908432081A3
:1006100005B0BDE8F083000000127A0040420F00F0
:10062000A1860100C9B2002904D0018851F001015E
:10063000018004E001884FF6FE721140018070478E
:1006400080B501210C20FFF765FE2020ADF80000E9
:1006500010208DF8030003208DF8020000A90C483B
:1006600000F07EF820210A4800F0DEF80820ADF8FE
:10067000000003208DF8020010208DF8030000A96F
:10068000044800F06DF82021014800F0CDF801BDCC
:10069000000C01400008014080B5FFF727FD5FF422
:1006A0008030FFF753FDFFF77BFDC0B20128FAD180
:1006B000C0B2012825D10020FFF7ADFD0020FFF7D3
:1006C000BEFD4FF48060FFF7B0FD022000F0B2F8ED
:1006D000102000F0BBF85FF4E0115FF44030FFF74A
:1006E0007CFD0120FFF784FD3920FFF733FE002851
:1006F000FAD00220FFF780FDFFF788FD0828FBD124
:1007000016E00020FFF722FD5FF4E0110020FFF764
:1007100064FD0120FFF76CFD3920FFF71BFE002868
:10072000FAD00220FFF768FDFFF770FD0828FBD123
:1007300001BD10B450F8041B81B102681218001DED
:1007400050F8043BDC0744BFA9F10104E31852F858
:10075000044B43F8044B091FF9D1EBE710BC704779
:10076000F0B400220026002400250023002791F881
:1007700003C01CF00F0C624691F803C05FEACC6C1A
:1007800001D58B781A430B781B0621D0036800240F
:1007900006E0CD78482D02D10125A5400561641CF5
:1007A000082C14D20125A5400E882E40AE42F6D169
:1007B000A5000F2616FA05F7BB4312FA05F52B43E1
:1007C000CD78282DE5D10125A5404561E7E70360F7
:1007D0000B88FF2B26DD4368002420E0012514F15F
:1007E0000806B5400E882E40AE4217D1A5000F2650
:1007F00016FA05F7BB4312FA05F52B43CD78282DE1
:1008000004D1012514F10806B5404561CD78482D85
:1008100004D1012514F10806B5400561641C082CBB
:10082000DCD34360F0BC704789B20161704789B284
:10083000416170470021DFF834201268110011F087
:1008400038010143DFF8240001607047DFF81C1015
:10085000096831F01001DFF814201160DFF80C1086
:1008600009680843DFF80410086070470020024060
:1008700080B501210820FFF74DFD01215FF4001034
:10088000FFF758FDC020ADF8000003208DF80200EE
:100890001C208DF8030000A91F48FFF761FF01210C
:1008A0005FF48000FFF746FD4FF44060ADF80000B4
:1008B00003208DF802001C208DF8030000A91648C3
:1008C000FFF74EFF01BD00B585B00020ADF8040074
:1008D0004BF6FF70ADF806000A20ADF808004FF4A3
:1008E0008060ADF80A004FF48040ADF80C000B4872
:1008F000009001210A48FFF795FE01210948FFF702
:1009000091FE00A90648FFF711FE00A90548FFF770
:100910000DFE05B000BD0000000C0140801A06006D
:10092000005400400058004080B5FFF7A1FFFFF7DA
:10093000CAFF01BD80B57FF0040000F05BF82648D7
:1009400000682649B0FBF1F025490870244800787A
:100950004FF47A7148432349088001BD2049097842
:100960004843214908600020204908602048006869
:1009700050F001001E4908601D48006810F0011089
:100980000128F9D01A48006840084000184908605A
:10099000002016490860704780B212490988484310
:1009A000114908600020114908601148006850F0A2
:1009B00001000F4908600E48006810F0011001287E
:1009C000F9D00B4800684008400009490860002041
:1009D00006490860704700001400002000127A00E9
:1009E0001A0000201800002014E000E018E000E0E9
:1009F00010E000E0042806D10648006850F004002A
:100A00000449086005E00348006830F0040001492B
:100A10000860704710E000E000B5C1B000A84FF4D6
:100A2000807100F023F8FFF737FEFFF783FFFFF731
:100A300007FEFFF779FF20210A48FFF7F8FE4FF481
:100A4000FA70FFF7A9FF0848FFF788FF2021054843
:100A5000FFF7EAFE4FF4FA70FFF79EFF0248FFF738
:100A60007DFFE8E7000C014040420F00002200F04B
:100A700011B850F8041B61B150F8042BD30744BFE0
:100A8000A9F101039A18002342F8043B091FFAD187
:100A9000EFE7704700B500BF130096469446103943
:100AA00028BFA0E80C50FAD85FEA417C28BF0CC0F0
:100AB00048BF40F8042BC90728BF20F8022B48BFC5
:100AC00000F8012B00BD7047FEE7FEE7FEE7FEE7FA
:100AD000704770477047704710B50749794418311F
:100AE000064C7C44163404E00A68081D51188847F7
:100AF0000146A142F8D110BD080000002800000006
:100B000073FFFFFF04000000180000200000000039
:100B100023FCFFFF18000000180100000000002067
:100B20000000000000F00BF8002801D0FFF7D4FF10
:100B30000020C046C046FFF76FFF00F002F801201A
:100B4000704700F001B800000746384600F002F890
:100B5000FBE7000080B5C046C046024A11001820DD
:100B6000ABBEFBE726000200014880470148004772
:100B7000D1030008790B0008C046C046C046C046F5
:100B8000FFF7D0FFFFF7FEBFFFF7FEBFFFF7FEBF87
:100B9000FFF7FEBFFFF7FEBFFFF7FEBFFFF7FEBF89
:100BA000FFF7FEBFFFF7FEBFFFF7FEBFFFF7FEBF79
:100BB000FFF7FEBFFFF7FEBFFFF7FEBFFFF7FEBF69
:100BC000FFF7FEBFFFF7FEBFFFF7FEBFFFF7FEBF59
:100BD000FFF7FEBFFFF7FEBFFFF7FEBFFFF7FEBF49
:100BE000FFF7FEBFFFF7FEBFFFF7FEBFFFF7FEBF39
:100BF000FFF7FEBFFFF7FEBFFFF7FEBFFFF7FEBF29
:100C0000FFF7FEBFFFF7FEBFFFF7FEBFFFF7FEBF18
:100C1000FFF7FEBFFFF7FEBFFFF7FEBFFFF7FEBF08
:100C2000FFF7FEBFFFF7FEBFFFF7FEBFFFF7FEBFF8
:100C30000000000001020304010203040607080982
:080C40000204060800A24A04A8
:0400000508000B796B
:00000001FF
